:100000000C9434020C9451020C9451020C94510241
:100010000C9451020C9451020C9451020C94510214
:100020000C9451020C9451020C9459240C942C25DC
:100030000C94761F0C9451020C9451020C945102B2
:100040000C9451020C9451020C9451020C945102E4
:100050000C9451020C940E200C9451020C945102F9
:100060000C9451020C9451020C9451020C945102C4
:100070000C9451020C9451020C9451020C945102B4
:100080000C9451020C9451020C9451020C945102A4
:100090000C9451020C9451020C9451020C94510294
:1000A0000C9451020C9451020C945102A8000000CF
:1000B0000000207853005400550056005F00600097
:1000C000610057005C005D005E00000059005A00AE
:1000D0005B00000062006300580000001E0F056412
:1000E0003214783C1E1E140A052223252628292AAC
:1000F0002C2D2F3032333536383A3B3D3E4042438B
:100100004547494A4C4E5051535557595A5C5E60C9
:1001100062646668696B6D6F71737577797B7D7FDB
:1001200081838587898A8C8E90929496989A9C9EDA
:100130009FA1A3A5A7A8AAACAEAFB1B3B4B6B8B9F6
:10014000BBBCBEBFC1C2C3C5C6C7C9CACBCCCDCE5E
:10015000D0D1D2D2D3D4D5D6D7D7D8D9D9DADADB41
:10016000DBDBDCDCDCDCDCDDDDDDDDDCDCDCDCDCCD
:10017000DBDBDBDADAD9D9D8D7D7D6D5D4D3D2D20C
:10018000D1D0CECDCCCBCAC9C7C6C5C3C2C1BFBEF4
:10019000BCBBB9B8B6B4B3B1AFAEACAAA8A7A5A35F
:1001A000A19F9E9C9A98969492908E8C8A8987851E
:1001B00083817F7D7B79777573716F6D6B696866FD
:1001C0006462605E5C5A5957555351504E4C4A49CF
:1001D00047454342403E3D3B3A3836353332302F77
:1001E0002D2C2A29282625232200010101010101A5
:1001F00001010102020202020202020203030303DE
:1002000003030303040404040404040505050505AD
:10021000060606060607070707070808080809096B
:1002200009090A0A0A0B0B0B0C0C0C0D0D0D0E0E16
:100230000E0F0F0F101011111112121313141415A9
:100240001516161717181819191A1A1B1B1C1D1D1D
:100250001E1E1F2020212222232424252626272873
:1002600029292A2B2C2D2D2E2F30313232333435A3
:10027000363738393A3B3C3D3E3F404142434445A6
:10028000464748494A4C4D4E4F5051535455565885
:10029000595A5B5D5E5F616264656668696B6C6D2F
:1002A0006F7072737577787A7B7D7E8082838587A5
:1002B000888A8C8E8F91939596989A9C9EA0A2A3E3
:1002C000A5A7A9ABADAFB1B3B5B7BABCBEC0C2C4E8
:1002D000C6C9CBCDCFD1D4D6D8DBDDDFE2E4E7E9A8
:1002E000EBEEF0F3F5F8FAFDFF1E03720069006F04
:1002F000005F006E0075006D007000610064005FBB
:1003000000340078003600000012036900760061B6
:10031000006E002D00720069006F000000040309E8
:100320000409023B00020100A0FA090400000103D5
:100330000101000921110100012244000705810388
:100340000800010904010001030000000921110156
:10035000000122B6000705820320000112010002FD
:1003600000000008EDFE000000010102000105018F
:100370000902A10185020901A10005091901290845
:100380001500250195087501810205010930093123
:100390001581257F95027508810609381581257F0D
:1003A000950175088106050C0A38021581257F958F
:1003B0000175088106C0C005010980A101850319E6
:1003C000012AB700150126B700950175108100C0FC
:1003D000050C0901A101850419012AA002150126B5
:1003E000A002950175108100C005010906A10185D3
:1003F00006050719E029E715002501950875018113
:10040000020507190029EF1500250195F0750181F6
:1004100002050819012905950575019102950175D7
:10042000039101C005010906A101050719E029E7AB
:100430001500250195087501810295017508810156
:100440000507190029FF150026FF0095067508818C
:10045000000508190129051500250195057501916B
:1004600002950175039101C011241FBECFEFDAE0A0
:10047000DEBFCDBF11E0A0E0B1E0ECE5F2E502C0E7
:1004800005900D92A23CB107D9F723E0A2ECB1E0B0
:1004900001C01D92AB36B207E1F70E94CE110C9459
:1004A000C6280C940000811108C089EA611101C0BE
:1004B0008AEA0E94890480E008958130E1F766238A
:1004C00019F00E948116F7CF0E944114F4CF8111D8
:1004D00011C0663078F4443068F484E0689FF0011D
:1004E0001124E40FF11DEE0FFF1FE455FF4F85911E
:1004F0009491089581E090E008950E946702089524
:1005000081E008950E948002089581E008950E948C
:10051000800208950E948702089508950E948D0226
:100520000895A6E0B0E0E7E9F2E00C945027498393
:100530005A839E833091C90189819A8131111AC0F1
:100540003E81332399F0222389F00E944308182F1B
:10055000682F89819A810E94200869817A81812F80
:100560000E94410F2696E3E00C946C270E9431080C
:10057000182FF3CF0E94430869817A81F1CFFC01E3
:10058000262F4081518162817381848195810E94EF
:1005900091020895CF93DF93D82FC92F61E00E9475
:1005A000BF026D2F7C2F0E948202DF91CF910895B0
:1005B000CF93DF93D82FC92F60E00E94BF026D2F29
:1005C0007C2F0E948E02DF91CF91089581E00895E3
:1005D0000E94E6020895CF93C82F0E94F2068C2F46
:1005E0000E94E8022FEF84E39CE02150804090407D
:1005F000E1F700C00000CF91089581E00E94EB0276
:100600000E943220089580E00E94EB020E94432065
:1006100008950F931F93CF93DF938C0161E00E94A5
:10062000BF02EC01F801858181110E946E17B801AB
:10063000CE010E948A028823E1F1B801CE010E9416
:10064000491D8823B1F1B801CE010E9468198823A1
:1006500081F1B801CE010E943D19882351F1B80102
:10066000CE010E948E17882321F1F801858188230D
:1006700081F0CA35FCE7DF0739F178F4C130ECE7E7
:10068000DE07F9F0C330FCE7DF07C9F0C115DC472E
:1006900071F0C8010E9485020DC0CB35ECE7DE0782
:1006A000B1F0CC35DC47A9F70E94770CF2CF0E945D
:1006B000FD0280E0DF91CF911F910F9108950E947C
:1006C000890C0E940303F5CF0E94810CE2CF0E94A7
:1006D000850CDFCF0E94531F0E94910308950E9452
:1006E00095030E94581F0895089581E00895089584
:1006F000CF93DF93D82F0E947503C82F882319F05A
:100700008D2F0E9477038C2FDF91CF91089508954C
:10071000CF93C82F0E9474038C2F0E947803CF912F
:10072000089580E00E94880308950E948F1D0E9412
:1007300088030895CF930E948F1DC82F8091C40114
:100740008C1779F0C093C4010E94E21F6093C50129
:100750007093C6018093C7019093C8018C2F0E94AB
:100760008803CF910895ADE0B0E0E9EBF3E00C949D
:100770005127488759876A877B878C879D87911186
:100780000E94820B1F8286E0FE013896DE011196E0
:1007900001900D928A95E1F78D8181110DC029811B
:1007A0003A814B815C816D817E818F810E94C80A74
:1007B0002D96E2E00C946D27CE0101960E94CA02AC
:1007C0008111EDCFF5CFFC018481813021F480814E
:1007D00091810E9475080895662329F00E94D61A17
:1007E0000E94AC1B08950E94341BFACFCF93C82FF0
:1007F000882399F08CEF8C0F813A88F48C2F0E941B
:10080000321E882329F08C2F0E94D71E0E941A0CBA
:100810008C2F0E94C01E0E941A0CCF91089580E276
:100820008C0F883048F4C77081E001C0880FCA95EA
:10083000EAF70E94630BEFCF8BE58C0F833038F41F
:100840002C2F2452330BC9010E94C51DE6CFE8E5C9
:10085000EC0FEB3150F4F0E0EE0FFF1FEF5DFE4FB9
:10086000808191810E94EB1DD8CF83E38C0F83316F
:10087000A0F661E08C2F0E94EC03CFCF882381F19A
:100880009CEF980F913A28F40E94D71E0E941A0CF0
:10089000089590E2980F983050F4877091E001C06D
:1008A000990F8A95EAF7892F0E94690BEFCF9BE594
:1008B000980F933028F480E090E00E94C51D0895C1
:1008C00098E5980F9B3128F480E090E00E94EB1DA2
:1008D000089593E3980F933118F460E00E94EC03BD
:1008E00008951F93CF93DF93182FEB010E94F60317
:1008F000209739F4812F0E943E04DF91CF911F9100
:1009000008958FE99FE00197F1F700C0000021975B
:10091000EFCF60E070E0893311F460E570E00E9491
:1009200071040895882321F00E94630B0E941A0C21
:100930000895882321F00E94690B0E941A0C0895E3
:10094000A0E0B0E0E6EAF4E00C944B276C01D62F6F
:10095000C72FFC011581068102950F700E94580B6C
:10096000E82E8823F9F0E12E1123E1F08C2F807F0F
:10097000803461F080E28D0F8830F0F08C2F807E23
:10098000803221F4D230C0F00023B1F08091120304
:1009900082FF12C082E00E944A0C0E94580B91E034
:1009A000E82EE926EC2FE295EF70C03CB0F5F0E0C0
:1009B000E853F74D0C943B27E12CF4CF0C2F0F702C
:1009C000C03110F00295007F112399F0002359F0F7
:1009D00080E28D0F883010F0D11107C0802F0E9467
:1009E000630B0E941A0C8D2F51C0802F0E94740B34
:1009F000F8CF8D2F0E943E04002379F080E28D0F06
:100A0000883010F0D11104C0802F0E94690B03C000
:100A1000802F0E947A0B0E941A0CEE2089F00E940F
:100A2000540B80FD0DC0F60115820E944E0B0E94F2
:100A30007D07C6010E94B9060E944E0B0E948D07D9
:100A4000CDB7DEB7E8E00C946727FC2FFF70FF2ED0
:100A5000C07FC03219F0F29480EFF822DD2341F01C
:100A6000D130D1F1112309F444C00023F1F0BBCF00
:100A70008091120382FD15C0112359F0FF2029F047
:100A80008F2D0E94630B0E941A0C80E00E94F603D7
:100A9000C4CF80E00E943E04FF2009F4BECF8F2D1A
:100AA000B4CF112369F0011104C08F2D0E9492046C
:100AB000B4CF013009F0B1CF8F2D0E949A0BADCF8A
:100AC0000111ABCF8F2D0E9499048F2D0E94A60B90
:100AD0008F2D0E94890BA1CF112321F0063008F041
:100AE0009CCFE3CF053008F098CF8F2D0E9499045A
:100AF00094CF0023D1F3D93349F42FEF87EE93E05D
:100B0000215080409040E1F700C000008D2F0E94EE
:100B10003E0483CF8C2F869586958370882369F059
:100B2000813009F07ACF8D2F9C2F9370111102C064
:100B300080E090E00E94EB1D70CF8D2F9C2F937072
:100B4000111102C080E090E00E94C51D66CF612FA8
:100B50008D2F0E94EC0361CF8C2F8370811139C0DF
:100B6000111129C04D2F429546954770440F440FEF
:100B70002D2F2F7030E0042E02C0220F331F0A9455
:100B8000E2F780E090E0D4FF09C08FE090E002C07F
:100B9000880F991F4A95E2F780959095C695C6955E
:100BA000C370822B932BC23071F0C33079F0C13007
:100BB00039F00E944D070E948F1D0E9488032DCF9F
:100BC0000E944407F8CF0E945607F5CF0E944107C4
:100BD000F2CF112361F1C0FFEECF4D2F4295469524
:100BE0004770440F440F2D2F2F7030E0042E02C0A9
:100BF000220F331F0A94E2F780E090E0D4FF09C08F
:100C00008FE090E002C0880F991F4A95E2F7809527
:100C10009095C695C695C370822B932BC23069F010
:100C2000C33071F0C13031F00E94B807C4CF8230B8
:100C300010F2D3CF0E94AF07BECF0E94C107BBCF37
:100C40000E946507B8CFCF70112339F08C2F0E9416
:100C50007D078D2F0E949204AECF8D2F0E949904A4
:100C60008C2F0E948D07A7CFD23F31F170F4D03F77
:100C7000B9F0D13FB1F1112309F451C0002309F4B7
:100C80004BC08D2F0E94F60396CFD33FE1F0D43FA7
:100C900021F11111F3CF011150C08C2F8F71E1CFD1
:100CA000112341F0053008F086CF8C2F8F710E9400
:100CB0009F0781CF0530F7CF8C2F8F711111D1CFC6
:100CC0000E947D0778CF112329F08C2F8F710E940D
:100CD000710771CF0E946C076ECF8091120382FD65
:100CE00006C08C2F8F71112309F4BBCFE9CF1123DC
:100CF00049F0CF718C2F0E947D0763E08C2F0E94FA
:100D00002C0C59CF81E00E944A0C023008F453CFDA
:100D100082E00E944A0C4FCF8C2F8F71D1CF0023DD
:100D200009F4BBCFD93349F4EFEFF7EE23E0E150FC
:100D3000F0402040E1F700C000008D2F0E943E04EB
:100D40003ACF0F931F93CF93DF93EC0168817981A2
:100D50008D810E9482088C010E94CA070E94400770
:100D6000B801CE010E94A004DF91CF911F910F9195
:100D70000895CF93DF93EC018C81882399F0CE0105
:100D80000E940903811111C00E94580B882351F061
:100D90008D81882339F08091120382FF03C082E0A5
:100DA0000E944A0CDF91CF910895CE010E94A106C6
:100DB000CE010E94D802F6CF80E090E00E94C51DCF
:100DC00080E090E00E94EB1D0E94820B0E941A0CB2
:100DD0000E94C91B0E94AC1B08950E94EE1E0E9437
:100DE000DC0608950E94710B0E94ED060895282FDD
:100DF00092959F70963091F060F4925F9F70923060
:100E000030F481E0203F79F030F4283E30F080E08B
:100E100008959A5FF3CF243FD1F7089581E0283EEB
:100E2000E0F3213FF9CF0895FC018481882339F054
:100E3000808191810E9475080E94F706089580E0E4
:100E40000895A6E0B0E0E7E2F7E00C94512726967B
:100E5000E2E00C946D27A7E0B0E0E1E3F7E00C944A
:100E600051272796E2E00C946D2708950E943507DC
:100E700008950E9436079093D9018093D801089570
:100E800008950E94390708952091D8013091D90121
:100E9000822B932B0E94390708952091D80130911D
:100EA000D901822393230E94390708952091D80104
:100EB0003091D901822793270E94390708950E9413
:100EC000350708950E945F0708950E946207909376
:100ED000D7018093D601089580E090E00E946507D5
:100EE000089521E030E0A90102C0440F551F8A9502
:100EF000E2F7CA010E946507089521E030E002C0D0
:100F0000220F331F8A95E2F78091D6019091D70185
:100F1000822B932B0E946507089521E030E002C0E8
:100F2000220F331F8A95E2F7209530958091D601E4
:100F30009091D701822393230E946507089521E0B1
:100F400030E002C0220F331F8A95E2F78091D6016C
:100F50009091D701822793270E94650708952091D9
:100F6000D6013091D701822B932B0E9465070895FB
:100F70002091D6013091D701822393230E946507E7
:100F800008952091D6013091D701822793270E949E
:100F90006507089508959B01677091E001C0990F5E
:100FA0006A95EAF763E0369527956A95E1F7220F8F
:100FB000331F220F331FFA01E20FF31F40E050E00E
:100FC000682F70E08191DF0111979B01042E02C010
:100FD000369527950A94E2F7217021952827292331
:100FE00028272C934F5F5F4F4430510559F70895E0
:100FF0009C01982F977083E0369527958A95E1F7A5
:10100000220F331F220F331FFB01E20FF31F40E0BB
:1010100050E080E0219130E0092E02C036952795FE
:101020000A94E2F721703327042E01C0220F0A949C
:10103000EAF7822B4F5F5F4F4430510559F708950F
:10104000282F862F963060F4243050F434E0939F9C
:10105000B0011124620F711D4AEC51E00E94CB07D0
:101060000895282F963068F4843058F434E0939F24
:10107000C00111246AEC71E0820F911D0E94F807F3
:10108000089580E00895A0E0B0E0E9E4F8E00C9471
:101090004A278C01E090D601F090D7018091D801C9
:1010A0009091D901E82AF92ACFE0D0E0CC24C3946A
:1010B000D12CC6010C2E02C0880F991F0A94E2F7AA
:1010C0008E219F21892B49F4219798F7B12C8B2DE4
:1010D000CDB7DEB7E9E00C946627BC2EB8018C2FA3
:1010E0000E944D0F019781F3F2CFCF93DF93D82F5A
:1010F000C92F0E9443086D2F7C2F0E944D0FDF9156
:10110000CF9108951F93CF93DF93162FD72F9091F0
:10111000C901992341F0862F972F0E947508DF910E
:10112000CF911F910895882381F0862F972F0E94D9
:101130004308C82F682F812F9D2F0E942008612F00
:101140007D2F8C2F0E944D0FEACF862F972F0E9464
:101150003108C82FF4CF0F931F93CF93E091DA019A
:10116000C7E08091DB018E1304C0CF911F910F91D6
:1011700008950E2F10E0CE9FF0011124E452FE4F8F
:1011800020813181428153816481758186810E94F1
:101190002B07F8013196E770E4CF209114023091CB
:1011A0001502409116025091170260911802709139
:1011B000190280911A020E942B07089580911A0249
:1011C000803178F480911902882359F0E091DA0196
:1011D0002091DB01309115024091140257E02E134B
:1011E00001C008956E2F70E05E9FF0011124DF01B1
:1011F000A452BE4F14968C911497882361F11196D6
:101200008C911197831327C08C91841324C0159659
:101210008C91159781111FC012968D919C91A09170
:101220001602B09117028A1B9B0B883C910598F41B
:1012300080911A028F70806180931A02EE51FE4FE6
:1012400080818F708061808384E192E00E94B90682
:101250000E94AB080895FB013196E770C0CFE09182
:10126000DA019091DB0127E0E91302C080E00895E4
:10127000AE2FB0E02E9FF0011124E452FE4F3181D9
:10128000361306C03081381303C03581341304C0CF
:10129000FD013196E770E8CF81E008958F929F922B
:1012A000AF92BF92DF92EF92FF920F931F93CF9373
:1012B000DF93CDB7DEB72D970FB6F894DEBF0FBE24
:1012C000CDBF8C0186E0F801DE01189601900D92E9
:1012D0008A95E1F7F801E080F580A280B3808481EF
:1012E00094E1892E92E0992E9091180291111BC0E1
:1012F000882309F4FCC0FF2009F43DC1C8010E9405
:101300001407882309F437C187E0F801D40101905C
:101310000D928A95E1F7C4010E94E3030E94DE0862
:101320000E94CD08E4C0D09019022091160230919D
:101330001702A501421B530BDD2009F4DBC0483C1A
:10134000510508F0A6C0882309F4D1C09091150278
:10135000918080911A02803108F06BC0991228C0E8
:10136000909114029E1124C0F1105DC08F708061B5
:1013700080931A020E94CD0884E192E00E94B9068F
:1013800080911A02F8018683F12C8F2D2D960FB6CD
:10139000F894DEBF0FBECDBFDF91CF911F910F91AB
:1013A000FF90EF90DF90BF90AF909F908F90089547
:1013B000F11039C040E0692D8E2D0E942F0940E0C8
:1013C000692D8E2D0E942F09F82E8111DDCF888581
:1013D00099850E947508292F22952F70903450F41A
:1013E0009F70223080F0992399F0F8019681903116
:1013F00078F4CBCF2A5F2F70223078F0C8010E949A
:10140000B906FD2CC2CF992319F0882309F4BDCF6A
:10141000805E883008F4B9CFF1CF803F08F4B5CFB3
:10142000815F8230F7CF80911A02816080931A0227
:10143000ABCF991207C0909114029E1103C0FF20F8
:1014400009F479C0C8010E941407882309F493C0E5
:10145000FF2009F490C080911A02803288F0209118
:101460001402309115023A832983BC82AB82909199
:1014700018029D831E828F83CE0101960E94B906B9
:1014800087E0F801A4E1B2E001900D928A95E1F7BE
:1014900045CF90911A029031A0F4488559856A850C
:1014A0007B858C859D850E94210784E192E00E94C6
:1014B000B90687E0F40111928A95E9F70E94CD08F8
:1014C00063CF8823A1F02091150281812813BACF20
:1014D000809114028E11B6CFF110B4CF9683C8015B
:1014E0000E94B90687E0F40111928A95E9F7FF247A
:1014F000F3944BCF483C510508F041C08823B9F321
:10150000FF20C9F190911502818198132AC0809122
:1015100014028E1126C080911A0280FD19C08031FC
:10152000B8F08683807F803F39F08681982F907F46
:10153000905F8F70892B8683C8010E94B90687E06F
:10154000F801A4E1B2E001900D928A95E1F7E8CEAE
:1015500087E0F801A4E1B2E001900D928A95E1F7ED
:10156000C6CFC8010E94140781118ACF80911A0248
:10157000816080931A02C8010E94B906B8CF4885DD
:1015800059856A857B858C859D850E94210791CF31
:10159000AEE0B0E0EEECFAE00C94502728873987F3
:1015A0004A875B876C877D878E87CE0108960E946D
:1015B0004E098823B1F06C85662341F02885398572
:1015C0004A855B857D858E850E942B0717E080917B
:1015D000DA019091DB0189133EC02E96E3E00C9472
:1015E0006C2787E0FE013896DE01119601900D927E
:1015F0008A95E1F72091DB014091DA018C858823FF
:1016000029F330E0C90101968770992750E08417CB
:10161000950799F097E0929FD001939FB00D112408
:10162000A452BE4FFE01319601900D929A95E1F7BA
:101630008093DB010E94AB08C9CF0E94F206109292
:10164000DB011092DA0187E0E4E1F2E0DF011D92B4
:101650008A95E9F7BBCF189FC001112484529E4F91
:101660000E944E09882309F4B8CFE091DA011E9F49
:10167000F0011124E452FE4F2081318142815381D7
:101680006481758186810E942B078091DA0190E048
:101690000196877099278093DA0199CF8091430250
:1016A0008695869586950895809143028770089562
:1016B00090914302977081E0911101C080E00895FC
:1016C00080916F02089590916F02982B90936F0212
:1016D0000895982F909580916F02892380936F02CF
:1016E000089510926F02089590916E02982B909336
:1016F0006E020895982F909580916E0289238093B1
:101700006E02089510926E02089508950E94850B4E
:10171000089590914402292F2823222331F08095A7
:101720008923809344020E94860B089508950E94A5
:10173000960B089590914502292F2823281729F008
:10174000982B909345020E94970B08959091450223
:10175000292F2823222331F0809589238093450265
:101760000E94970B089580914502882329F01092DA
:10177000450280E00E94970B0895CF93DF93C091BC
:101780006F0280916E02C82BD0914502DD2331F0AB
:101790000E94111E81110E94B30BCD2B8C2FDF9163
:1017A000CF910895CF93DF93C0910601D0910701A7
:1017B0000E94BD0B8883C0910601D091070148E0CB
:1017C00050E06BE372E0CE010E941728892B59F09C
:1017D00088E0FE01ABE3B2E001900D928A95E1F75B
:1017E000CE010E949C1DDF91CF910895CF93DF938E
:1017F000C0910401D09105010E94BD0B8983C09165
:101800000401D091050140E250E06BE172E0CE01AD
:101810000E941728892B59F080E2FE01ABE1B2E06B
:1018200001900D928A95E1F7CE010E94A71DDF91EC
:10183000CF91089580912001882339F08091110380
:1018400087FF03C00E94F60B08950E94D20B0895F3
:1018500008950E94280C08959091120392FF11C0E0
:1018600098E0899F90011124622B609343020E94AB
:101870007D07809143028695869586950E94290C66
:1018800008950E947D0708951092430280E00E940F
:10189000290C0895909143028095892380934302F7
:1018A000282F277021110DC0891759F0909112032C
:1018B00092FF07C08695869586950E948D070E94A7
:1018C000440C08959091120392FB222720F92817C7
:1018D00069F080FB92F9909312038091110390912B
:1018E00012030E94AA0C82E00E944A0C0895809183
:1018F000120382FB882780F991E089270E94620CFD
:10190000089581E00E94620C089580E00E94620CBC
:1019100008956FEF7FEF80E090E00E946F280895B8
:1019200080E090E00E943B289C0181E0263E3E4FF3
:1019300009F080E0089582E090E00E942D2808954B
:1019400083E090E00E942D28089584E090E00E94BA
:101950003B280895BC0184E090E00E946F28089520
:10196000AB01BC018FE090E00E9463280895AB01B9
:10197000BC0183E190E00E946328089560E070E07C
:10198000CB010E94B70C089560E070E0CB010E948B
:10199000B00C0E94BE0C0895A8E0B0E0E2EDFCE0BF
:1019A0000C94512766EE7EEF80E090E00E946F2855
:1019B00060E082E090E00E94512881E090E0909306
:1019C000D9018093D80161E083E090E00E94512822
:1019D00060E074E184E090E00E946F2860E086E0BF
:1019E00090E00E9451286FEF87E090E00E9451281C
:1019F00040E050E0BA0188E090E00E94632860E097
:101A000084E290E00E94512860E087E190E00E942B
:101A1000512860E08CE090E00E94512860E08DE069
:101A200090E00E94512819821A821B821C821D821A
:101A30001E821F82188648E050E068E170E0CE0107
:101A400001960E94412840E050E0BA0180E290E017
:101A50000E9463280E94C40C2896E2E00C946D2733
:101A60000E94CC0C0895682F8EE090E00E945128CF
:101A70000895A6E0B0E0EFE3FDE00C944F270E944C
:101A8000D61F8C018091700290917102801791078E
:101A900079F019821A820E94D61FBC0149815A81AD
:101AA00080E090E00E94B3031093710200937002F3
:101AB0002696E4E00C946B270E94E21F609380025C
:101AC00070938102809382029093830260937C02E0
:101AD00070937D0280937E0290937F0208950E940E
:101AE000E21F609380027093810280938202909340
:101AF0008302609378027093790280937A029093C4
:101B00007B020895089508950E94820D0895089516
:101B10000E94870D089585E490E10E94DB110E94E8
:101B2000830D0E94840D089581E008950E94940D14
:101B300008950E94940D0895089508950E949C0DA3
:101B40000E949D0D08950E9464100E9487030895CD
:101B50000E94CD1F0E940E180E942C110E94A30DFE
:101B60000E94B2160E94880D0895A6E0B0E0EBEB4B
:101B7000FDE00C9448270E94960D811111C00E942F
:101B8000390D0E946F170E94941881110E946F0DE9
:101B90000E94EA1B0E949A032696EBE00C946427AD
:101BA0000E94421182E7A82E82E0B82E750110E053
:101BB000F70101917F01812F0E948A101F5F16306B
:101BC00009F443C00817A1F38091840281FD0E94AB
:101BD00090100E94990DC82E00E099249394802FB4
:101BE0000E948A10182FF50191915F01891739F130
:101BF000D82ED926F12CEE24E3948D2D8E21882326
:101C0000B1F0CC20A1F0F9820A830E94D61F9C83F8
:101C10008B839D8291E0812F8E21811101C090E004
:101C200049815A816B817C818D810E94B303F39439
:101C3000EE0CF4E0FF12E1CFF501319710830F5F56
:101C4000063069F60E945C0D9CCF0813BDCF97CF7C
:101C50001F93CF93DF930E94520FEC01811522E571
:101C6000920708F053C0811540E5940708F0DDC0E5
:101C7000803E9105F8F48D3C910508F0AEC0883A9D
:101C8000910580F4853A910508F099C0813091055D
:101C900021F00497813A910550F4CE01DF91CF9164
:101CA0001F910895885A91094B9708F48BC0C0E0A2
:101CB000D0E0F3CF811550E49507F8F4C11580E228
:101CC000D80708F0CBC0C83ED10538F3CE019A95AD
:101CD00081159F4160F78D2F0E94F60F182FCE01BE
:101CE00099270E94520F212F30E0322F2227E9013D
:101CF000CC27DF71C82BD92BD0CF99270E94520F48
:101D0000CC27DF70C82BD92BD06AC7CF803842E5EB
:101D10009407C8F5803652E5950708F067C0C034CF
:101D200082E5D807B0F08C2F86958695877020E2E3
:101D3000829FC0011124C37021E030E0A90102C0DC
:101D4000440F551FCA95E2F7EA01C82BD92BDC686E
:101D5000A4CFC03252E5D50708F041C08C2F86953C
:101D6000869520E2829FC0011124C37021E030E0FB
:101D7000A90102C0440F551FCA95E2F7EA01C82B1A
:101D8000D92BDD688ACF803C52E5950760F48F71CE
:101D9000C03AD24508F03FC090E0982F8827EC0168
:101DA000C46FD06A7ACF805C9245809708F07FCF6D
:101DB000DC2FCC27CC27DF71C06FD06A6ECFA49701
:101DC000D0646BCFC85AD0E0CC0FDD1FC95ADE4FAC
:101DD0000990D881C02DD46460CFD0655ECFCF711B
:101DE000D0E0DC2FCC27C16FD06A57CF869586957F
:101DF000877020E2829FC0011124C37021E030E08F
:101E0000A90102C0440F551FCA95E2F7EA01C82B89
:101E1000D92BDA6842CF0E94F60FC82FD0E0DC2F12
:101E2000CC27CC27DF71D06238CF8F710E94F60F9C
:101E300065E0D695C7956A95E1F7CF70D0E0DC2FC5
:101E4000CC27282F30E084FF05C054E0220F331F39
:101E50005A95E1F7C22BD32BD0691FCF8D2F8F71ED
:101E60000E94F60F182FCE0199270E94520F212FA2
:101E700030E0322F222722273F71282B392BE9010E
:101E8000D2CF462F672F763028F4443018F40E94C2
:101E90007D02089580E090E008950E94410F0E9425
:101EA000280E0895803E9105D1F1C8F48133910543
:101EB00009F47FC048F48932910509F46FC08A3271
:101EC000910509F47DC0089589339105E1F08238C8
:101ED0009105C9F08533910509F45BC00895843EEE
:101EE0009105D1F148F4823E910531F1833E91058F
:101EF00041F181EE90E00895863E9105C1F1873E63
:101F00009105E1F10895209111032370211165C01D
:101F10002091120323FF14C089E290E008952091DC
:101F2000110320FD43C03091120330FF09C024FF8C
:101F30004EC080E090E008952091110322FDF7CF7C
:101F400008952091110322FD45C03091120330FD08
:101F500044C024FFF5CFEDCF2091120321FFF0CF35
:101F60008091110384FDE5CF87EE90E008952091E4
:101F7000110323FFE5CF24FDDCCFF6CF2091110321
:101F800023FD2EC03091120331FFE3CF84EE90E0A9
:101F900008952091110325FFD3CFBECF20911103C7
:101FA00025FD21C02091120323FFCACF89E390E0D1
:101FB00008952091110326FFC3CF8AE290E008958F
:101FC0002091110326FFBCCF81E390E0089583EEBA
:101FD00090E0089582EE90E0089580EE90E00895FC
:101FE00086EE90E0089585E390E0AACF90911103EA
:101FF00092FF10C041E0282F2471243009F040E006
:1020000031E0282F2871283009F030E0431711F013
:102010002CE0822793FF10C041E0282F2471243147
:1020200009F040E031E0282F2871283109F030E034
:10203000431711F02CE082273091120330FF10C0BB
:1020400051E0282F2171213009F050E041E0282F84
:102050002871283009F040E0541711F029E0822758
:1020600031FF10C041E0282F2171213109F040E0FB
:1020700031E0282F2871283109F030E0431711F0A2
:1020800029E0822794FD877E089580E008950E94CC
:10209000890C08950E9442112FEF86E791E02150AC
:1020A00080409040E1F700C000000E94421180E0B3
:1020B0000E948A1080FF04C00E9447100E943220B4
:1020C00008950E944A1008950E94900C811102C048
:1020D0000E94300D0E949B0C809384020E94A50CEC
:1020E00090931203809311030E9461100E94A00C30
:1020F00090E00E9441078091D6019091D7010E9403
:102100006207089508950E948210089508950E941C
:1021100086100895E82FF0E0E75EFC4F8081089577
:10212000089580EA8A95F1F7089500C008950E9405
:1021300091100895F894E82FE295EF70F0E041A136
:102140008F7021E030E0B90102C0660F771F8A95D9
:10215000E2F7CB01962F9095942391A392A1892B1E
:1021600082A378940895CF93DF93C1E9D1E0899158
:102170008F3F11F00E949A1081E0C739D807B9F754
:1021800081E90E949A1080E90E949A1084E90E94D5
:102190009A1086E60E949A10DF91CF910895A0E0F0
:1021A000B0E0E5EDF0E10C944B27EC01D62E062FC4
:1021B00010E0C8018F569E4F7C01FC0180818F3F4B
:1021C00009F445C0F894E82FE295EF70F0E091A192
:1021D0008F7021E030E001C0220F8A95EAF7892F45
:1021E000822B81A382A12095282322A378940E9488
:1021F0009510EDE8F1E091E0C12C81918F3F81F0E5
:10220000A82FA295AF70A05EB0E02C9130E08F7047
:1022100002C0359527958A95E2F72170892F211103
:1022200080E0C82A990F81E0E139F80731F7F7011A
:1022300080818F3F11F00E949A1061E0C11001C0AF
:1022400060E08D2D0E949710C00FD11FC882CDB7BE
:10225000DEB7E8E00C9467270E94B31086E0E9E15E
:10226000F3E0DF01982F1D929A95E9F7E3E1F3E09F
:10227000DF011D928A95E9F786E00E9480110E9495
:1022800083100895A6E0B0E0E8E4F1E10C944E2755
:102290001A821982FE01339684E0DF011D928A952D
:1022A000E9F7F12C8E010F5F1F4F6F2DC8010E94BF
:1022B000CF10F394B6E0FB12F8CF46E050E0B8013F
:1022C00083E193E00E94172821E0892B81F420E02C
:1022D00046E069E173E083E193E00E948111182FE9
:1022E0000E948710812F2696E5E00C946A2786E0ED
:1022F000F801A3E1B3E001900D928A95E1F7E8CFF0
:102300000895A0E0B0E0E7E8F1E10C944B27D82E67
:10231000E92EF62ED72F042FC22F222379F081E049
:10232000809387020E94D61F909386028093850235
:1023300080E0CDB7DEB7E8E00C946727C090870255
:10234000CC20B1F380918502909186020E94FF1FFC
:10235000059770F310E0A8016D2D7E2D8F2D9D2F18
:102360000E941728892B41F0A8016D2D7E2D8F2DFD
:102370009D2F0E942428CC2D109287028C2FD9CF1C
:102380000E94B1210E94A80D0E94BE2108950E94C2
:10239000C3210E94B50D0E94DD2108950E946F1F88
:1023A0000E9497210E948B0D0E94C0110E94C711AC
:1023B0000E949E0DFBCF9093C3018093C2010895AC
:1023C000A0E0B0E0E6EEF1E10C944927E82F7111AE
:1023D0000DC0442321F0F0E0E751FE4F8491682FB7
:1023E000782FCDB7DEB7EAE00C946527262F30E0D2
:1023F000C72FD0E0F0E0442321F0E751FE4FE491F5
:10240000F0E086E0829F7001839FF00C11240FEFB3
:1024100010E0C701B8010E94F126AB01220F331F63
:1024200065E5649FC001659F900D1124281B390B41
:10243000C22ECC0CC20EC8018C1B9D0B8E9F90012E
:102440008F9F300D9E9F300D1124832FCC9EB001A5
:10245000CD9E700D1124672F77275801A61AB70A51
:10246000AE9ED001AF9EB00DBE9EB00D11247B2F4D
:102470005801AC18B1086501CC9E5001CD9EB00C3E
:10248000DC9EB00C1124AB2CBB240A191B090E9F37
:10249000E0010F9FD00D1E9FD00D11246E2F4330F1
:1024A0005105C9F09CEFE91693E0F90650F441306C
:1024B000510509F496CF4230510589F07E2F6D2FDA
:1024C00090CF4430510571F046305105B9F3632F78
:1024D0008B2F7E2F86CF6B2F732F8E2F82CF732F54
:1024E0008D2F7FCF7D2F632FF8CF41E00E94E01129
:1024F000089508950E9475120895CF93DF93982F41
:10250000762F842FE901692F0E947A1279836883DC
:102510008A83DF91CF91089580911F03843028F43E
:102520008370846080931F0308958835E8F3837077
:102530008465F8CF4F925F926F927F928F929F92B5
:10254000AF92BF92CF92DF92EF92FF920F9388E00B
:1025500090E00E9435282B013C0184E290E00E942B
:102560002D28282F30E040E050E060E070E080E06F
:1025700090E000E20E94782753014201C12CD12C47
:102580007601242939294A295B296C297D298E293C
:102590009F290F91FF90EF90DF90CF90BF90AF9069
:1025A0009F908F907F906F905F904F900895A0E0E4
:1025B000B0E0EDEDF2E10C944B278901D42FC52F4B
:1025C0006B017C010E948C12A8016D2F7C2F88E08A
:1025D00090E00E94632898014D2F5C2FB601C7013F
:1025E00000E20E949327622F84E290E00E9451282B
:1025F000CDB7DEB7E8E00C946727EFE1F3E085E0C4
:1026000080838AE681838FEF82838383148275813E
:1026100025E03AE64FEF5FEF60E0868197810E9408
:10262000D712089580911F0380FF03C08695869579
:10263000089580E0089590912303933018F49F5FEC
:1026400090932303882391F020911F03309120035E
:102650004091210350912203609123037091240340
:1026600080912503909126030E94D712089581E05E
:102670000E941B13089590912303992319F0915000
:1026800090932303882391F020911F03309120031E
:102690004091210350912203609123037091240300
:1026A00080912503909126030E94D712089581E01E
:1026B0000E943B13089570E00E940F1908956091E5
:1026C000090180911F0380FF0DC02091080130E0B7
:1026D000C901880F991F820F931F895D9C4F0E942B
:1026E0005B13089580910A0190910B01282F30E02F
:1026F000F901EE0FFF1FE20FF31FE95DFC4F891791
:1027000020F71182108212828F5F3396F8CF90915A
:102710001F0390FF11C090910A0150910B01292FC6
:1027200030E0F901EE0FFF1FE20FF31FE95DFC4FF0
:10273000951718F00E945F13089581836083428388
:102740009F5F3396F5CFA3E0B0E0E9EAF3E10C94A4
:10275000512790911F0390FF0AC09E012F5F3F4FAA
:102760000E947D124B8169818A810E948713239682
:10277000E2E00C946D27CF93DF93EC01EC81F0E065
:10278000E751FF4F4491EFE1F3E0628181810E94C4
:10279000A3138C818F5F8C83DF91CF910895CF93AA
:1027A000DF93EC01EFE1F3E0438162818C810E94D1
:1027B000A3138C818F5F8C83DF91CF910895A3E069
:1027C000B0E0E5EEF3E10C944D27082FF62E142F20
:1027D000E22E80911F0380FF2EC0E82FE695E6953C
:1027E000F0E0E956FE4F90819093E5028C7F8430B3
:1027F00031F59E012F5F3F4F802F0E947D124B814C
:1028000069818A810E94871300932003F09221033B
:1028100010932203EE2079F020911F03609123038F
:1028200070912403302F4F2D512F809125039091CB
:1028300026030E94D7122396E6E00C946927923073
:1028400019F410912203E0CF9630F1F600912003A5
:10285000DBCF282FEFE1F3E08181438162818E5F3E
:102860000E94DF13089581E00E9429140895282F03
:10287000EFE1F3E081814381628182500E94DF13A6
:10288000089581E00E9437140895282FEFE1F3E0C6
:10289000628131E1630F08F46FEF438181810E940F
:1028A000DF13089581E00E9445140895282FEFE179
:1028B000F3E0628131E1631B08F460E043818181D0
:1028C0000E94DF13089581E00E9456140895282F76
:1028D000EFE1F3E0438131E1430F08F44FEF628110
:1028E00081810E94DF13089581E00E94671408959A
:1028F000282FEFE1F3E0438131E1431B08F440E08E
:10290000628181810E94DF13089581E00E94781422
:10291000089520E00E94DF130895A0E0B0E0E3E90D
:10292000F4E10C944A27FC01828101E080FD0FEF65
:1029300010E080910C01181798F00E945F138091AD
:102940008802013009F051C0811102C080910C0150
:10295000815080938802CDB7DEB7E9E00C946627FA
:1029600080910A01C12ED12C8C0D9D2D911DEC0161
:10297000CC0FDD1FC80FD91FC95DDC4F198218822B
:102980001A8234E0E32EF12CB12C809188028B0D59
:1029900082312CF161E10E94E326892F082E000C80
:1029A000990BC816D90691F4809122038E9DA0013F
:1029B0008F9D500D112455954795559547959E012E
:1029C00060912103809120030E947D12B00EF1E0FE
:1029D000EF1AF108E114F104C1F61F5FAACF87FFD7
:1029E000DDCF90910C01890FD9CF90E001966091D5
:1029F0000C0170E00E940527ACCF0F931F93CF937B
:102A0000DF93EC0100E010E040910C01842F90E096
:102A1000081719076CF00E945F138C8190E00196F3
:102A2000817099278C83DF91CF911F910F91089529
:102A300080910A01800F912F911D9C01220F331F5D
:102A4000280F391F295D3C4F9C81609121038091A3
:102A50002003469550E0041715074CF4992349F0DC
:102A6000409122030E947D120F5F1F4FCDCF99230B
:102A7000B9F340E0F7CFA0E0B0E0E1E4F5E10C9479
:102A80004327FC016280448081E08483E9EEF0E02A
:102A90007490E8E6F1E0E491C0912203C695C15834
:102AA000D0E0CC0FDD1FCD2FDD27812C75E0972ED8
:102AB000AA24AA94B12C55245A94E719EE2EF12C8D
:102AC00080910C01881638F00E945F13CDB7DEB7F5
:102AD000E0E10C945F27C82CD12C82E0861568F0C9
:102AE0009C9CF0019D9CF00D1124E757FD4F8091B7
:102AF00020038083809121038183411023C09C9C0B
:102B0000F0019D9CF00D1124E757FD4F13821282B6
:102B100080910A018C0D9D2D911D9C01220F331F68
:102B2000280F391F295D3C4F9C9CF0019D9CF00DA6
:102B30001124E757FD4F4281618180810E947D12FF
:102B40008394BECF9C9C80019D9C100D112407573F
:102B50001D4FF80183818823F1F081508383589EB3
:102B6000C0011124648170E00E94F126FB01FF275F
:102B7000E751FF4F8491E82FE7195E9EC0011124B1
:102B8000B7010E94F12680912203689FB0011124B1
:102B9000F8017283BDCF0E94FA27B5010E94052774
:102BA0008C179D070CF0B4CFF2E0F61598F40E9454
:102BB000FA27B5010E940527F80180830E94FA27B1
:102BC000209121032695622F70E00E940527280F8F
:102BD000F80121839C9CF0019D9CF00D1124E75786
:102BE000FD4F128280912203893C58F088EC9C9C16
:102BF000F0019D9CF00D1124E757FD4F84838383E2
:102C000087CF8431A0F784E1F2CFEFE1F3E02081B8
:102C10002E7F208331814281538164817581868139
:102C200097810E94D7121092E6020E945F130895C6
:102C300060911F036695669570E041E050E08DE07D
:102C400091E00E940A28892B19F481E08093E60222
:102C50000E94D61F9093DF028093DE020895909128
:102C60001F0390FF3AC08823C9F18631C8F58F73DE
:102C7000282F220F220F80911F038370282B20936F
:102C80001F03662381F0309120034091210350916E
:102C90002203609123037091240380912503909176
:102CA00026030E94D71260911F036695669570E017
:102CB00041E050E08DE091E00E940A28892B91F0DC
:102CC0001092E60281E08093E1024091220360913C
:102CD0002103809120030E948914089581E0C8CFC8
:102CE00085E1C6CF0E941816EDCF682F80911F0393
:102CF000869586958F5F863108F081E00E942F16B9
:102D0000089581E00E9475160895682F90911F0321
:102D1000969596958FEF890F913009F485E10E9481
:102D20002F16089581E00E948516089561E00E94A3
:102D30002F160895EFE1F3E080818160808386950E
:102D400086950E949616089580911F0380FF03C008
:102D50000E94051608950E949A16089560E00E9448
:102D60002F1608958091E40281113FC00E94900CBB
:102D7000811104C00E94300D0E94FD120E949A121F
:102D800020931F0330932003409321035093220389
:102D90006093230370932403809325039093260369
:102DA0002430A0F40E94FD120E949A1220931F0367
:102DB0003093200340932103509322036093230315
:102DC0007093240380932503909326030E948C1212
:102DD0001092E60280911F0380FF04C086958695BD
:102DE0000E94AE1681E08093E40208950F931F9332
:102DF000CF93DF938091E6028823C1F19091E502A1
:102E0000E0911F03E695E695E91BE093E00292301E
:102E100091F5F0E0EB51FF4FE491CE2FD0E00BEBBA
:102E200013E18091E102882361F01092E1020E9497
:102E3000D61F9093DF028093DE021092E30210927D
:102E4000E2020E94D61F2091DE023091DF02821B37
:102E5000930B8F3F9F4750F42C0F3D1F3093DF02A1
:102E60002093DE028EED92E0F8010995DF91CF917B
:102E70001F910F910895963049F4F0E0EE51FF4F05
:102E8000E491CE2FD0E00FEC13E1CBCF993051F489
:102E9000E695F0E0E152FF4FE491CE2FD0E00DE84F
:102EA00014E1BFCFC4EFD1E00DEF14E19F3009F47E
:102EB000B8CFC0EDD7E009E712E1903109F0B1CF0A
:102EC0008E2F63E00E94D726E92FF0E0E452FF4FF7
:102ED000E491CE2FD0E00BE315E1A3CF08950E943B
:102EE000F6160895FA01882311F009950895FB015B
:102EF000FCCFCF93DF93C82FD62F0E9412138C17CD
:102F000048F00E9412138D1728F40E948116DF9159
:102F1000CF9108958C2F0E949616F9CF1F93CF93CF
:102F2000DF93EC01FB01158111115BC00E94600B66
:102F30008272FE01E052F847E531F10508F051C018
:102F4000EC52F74D0C943B270E94A416812FDF9181
:102F5000CF911F91089542E956E161E876E10E9420
:102F60007217F4CF41E856E162E976E1F8CF41E427
:102F700054E163E374E1F3CF43E354E161E474E1CA
:102F8000EECF43E654E162E574E1E9CF42E554E176
:102F900063E674E1E4CF45E854E164E774E1DFCF30
:102FA00044E754E165E874E1DACF47E553E167E3CC
:102FB00073E1D5CF47E353E167E573E1D0CF81E01B
:102FC0000E949616C3CF65E082E00E947917BECFBB
:102FD00068E086E0FACF6EE089E0F7CF65E180E156
:102FE000F4CF11E0B3CF8FE891E00197F1F700C083
:102FF00000000895CF93DF93D62F0E945302C82F6D
:10300000882341F06AE070E089EAD11101C08AEAC0
:103010000E9471048C2FDF91CF910895EF92FF925F
:103020000F931F93CF93DF9382E08093E9028FEB9E
:10303000E82E81E0F82E0DEB11E0A801D70121E088
:1030400030E08D91E82FE295EF7061E26E0F70E055
:10305000EB01F8818F70E90102C0CC0FDD1F8A956A
:10306000E2F7CE019C2F90959F23EB019883EE5DB4
:10307000F0E09081892B8083FA018191AF01E82FE4
:10308000E295EF7061E26E0F70E0EB01F8818F70F6
:10309000E90102C0CC0FDD1F8A95E2F7CE019C2F1B
:1030A00090959F23EB019883EE5DF0E09081892B52
:1030B0008083D1E0A13CBD0721F60E94F317409127
:1030C000E902ACEEB2E0EFEBF1E08E2F8E1984173F
:1030D00028F0CDB7DEB7E6E00C9469275191852F33
:1030E00082958F70805E90E0EC012881E801399133
:1030F0008E01832F82958F70805E90E0EC01888135
:1031000090E03F7002C0959587953A95E2F78170FF
:10311000880F30E05F7002C0359527955A95E2F729
:103120002170822B8D93D1CFA0E0B0E0EAE9F8E1E5
:103130000C944B27F12CE12C84E0C82ED12C8091EB
:10314000E902F81630F08E2DCDB7DEB7E8E00C942A
:1031500067270F2D10E0F801E154FE4F4081E42F66
:10316000E295EF70E05EF0E02081F801E354FE4F5D
:103170003081E32FE295EF70E05EF0E0808190E037
:103180003F7002C0959587953A95E2F78170880F58
:1031900030E04F7002C0359527954A95E2F72170CF
:1031A000822BD801A451BD4FEC919E2F937098179C
:1031B000A1F1EE0FEE0FE82BEC93EF70F0E0E3558A
:1031C000FE4FE801C651DD4F80819881890F8883C9
:1031D00020E084305CF0F801E951FD4F80818F5F81
:1031E000808360E08F2D0E94FA1721E088818D3F57
:1031F0005CF4F801E951FD4F80818150808361E0EA
:103200008F2D0E94FA1721E08881082E000C990B5F
:10321000B6010E9405278883E22AF39490CF9C018F
:10322000AB01869A61B36F7B71B37064EFB7F894AA
:10323000CA01880F991F840F951F820F931F821751
:10324000930741F4EFBF8FE594E00197F1F700C0D9
:1032500000000895D9014D919D0158E071BB000017
:1032600000C047FF61BB440F000000C000C000C0A9
:1032700061BB00C05A9591F7E2CFCF93DF93EB018A
:1032800086319C4719F50E94600B9D819923A1F01E
:103290008A7A91E0811101C090E09093EE02882338
:1032A00049F085E30E94C01E0E941A0C80E0DF9165
:1032B000CF91089589E2F6CF8091EE02882321F024
:1032C00085E30E94D71EF0CF89E2FBCF81E0EFCFEC
:1032D000CF93DF93EC01FB018581882309F4D2C0F1
:1032E0009E0130572332310508F0B2C00E94A50C70
:1032F0009093120380931103FE01E150F047E232F4
:10330000F10520F4E751F74D0C943B278091110310
:1033100081608093110393C0809112038860809331
:1033200012038DC0809111038260F3CF809111034D
:103330008460EFCF809111038860EBCF80911203FE
:103340008160EDCF809112038260E9CF80911103FB
:103350008061DFCF809111038062DBCF8091110308
:103360008064D7CF0E94F206809111038068D1CF8C
:10337000809111038C60CDCF809112038360CFCFF9
:10338000809111038E7FC5CF80911203877FC7CFB5
:10339000809111038D7FBDCF809111038B7FB9CFB9
:1033A00080911103877FB5CF809112038E7FB7CFB5
:1033B000809112038D7FB3CF809111038F7EA9CFAF
:1033C000809111038F7DA5CF809111038F7BA1CFB9
:1033D0000E94F206809111038F779BCF8091110399
:1033E000837F97CF809112038C7F99CF80911103B7
:1033F00082FB992790F921E0922790FB82F990FBBC
:1034000083F987CF80911203982F909591708E7FCA
:10341000892B90FB81F983CF90911103892F8F7BAA
:1034200096FF806476CF0E94F20690911103892F57
:1034300097FB87F980586DCF81E00E94330D809112
:103440001103909112030E94AA0C0E94F20680E0E0
:10345000DF91CF91089580E0F0CF90911103892FF3
:103460008F7E94FF806155CF90911103892F8E7FBD
:1034700090FF81604ECF90911203892F877F93FF39
:1034800088604DCF81E0E4CF282F35EB2303C001C6
:10349000112497FF04C080589109892F08958058FE
:1034A0009F4FFBCF8091F50280FF0DC0609113010B
:1034B00070E0660F771F60387105C0F56115710502
:1034C000B9F1862F089581FF07C06091130184E050
:1034D000689FB0011124EFCF82FF04C060911301F7
:1034E00088E0F6CF8091F4028823E9F090911201F0
:1034F0006091130170E0891730F093E0660F771F39
:103500009A95E1F7D8CF869F9001879F300D1124BF
:1035100083E0220F331F8A95E1F7692F70E0C9011C
:103520000E940527C8CF68E070E0CBCF8FE70895F1
:1035300081E008958091F50280FF0CC060910F0139
:1035400070E075956795759567956115710561F1E1
:10355000862F089581FF06C060910F0170E0759578
:103560006795F3CF60910F0170E082FD15C0209147
:10357000F3022223B1F090910E0160910F0170E0EF
:10358000291750F4269FA001279F500D1124692F61
:1035900070E0CA010E94052760387105B0F28FE71C
:1035A000089561E070E0D4CF81E008959091F80231
:1035B0002091F902922B2091FB02922B2091FA028A
:1035C000922B992331F098E09093F40291E090933C
:1035D000F3028D3C31F40E94521A81958093F902D6
:1035E0000895E2E3E80FE231B0F5F0E0E55FF64D73
:1035F0000C943B270E94521AF1CF0E94521A8195D7
:103600008093F80208950E94521AFACF0E949A1AE3
:103610008093FA0208950E949A1A8195F9CF0E9428
:103620009A1A81958093FB0208950E949A1AFACF04
:10363000815D990B21E030E001C0220F8A95EAF705
:103640008091F702822B8093F70208958091F50212
:1036500081608093F50208958091F5028260F9CF30
:103660008091F5028460F5CF4091F8028D3C59F4C9
:103670008091F90287FF0DC01092F902442359F49A
:103680001092F40208C08E3C81F48091F902181661
:103690009CF3442381F08091FA029091FB02892BE4
:1036A000811159C01092F30208958F3C41F447FFF5
:1036B000F0CF1092F8028091F9028823E0CF803D8C
:1036C00019F41416B4F3E5CF9091FA02893D29F468
:1036D0001916FCF61092FA02DCCF8A3D19F497FF16
:1036E000D8CFF8CF9091FB028B3D29F497FFD1CF33
:1036F0001092FB02CECF8C3D19F41916CCF3C9CF32
:103700009FE2980F983090F4815D990B21E030E0B2
:10371000B90102C0660F771F8A95E2F7CB01809549
:103720009091F70289238093F702B3CF8D3D31F456
:103730008091F5028E7F8093F502ABCF8E3D21F410
:103740008091F5028D7FF7CF8F3D09F0A2CF809158
:10375000F5028B7FF0CF08950E94D61F2091F802CA
:103760003091F902232B222321F08093F1029093D0
:10377000F2022091FA023091FB02232B222321F046
:103780008093EF029093F00286EF92E00E94B61DC4
:10379000089586E0E6EFF2E0DF011D928A95E9F7F1
:1037A0001092F4021092F3021092F5020895FC01B7
:1037B000828181110DC0838181110AC084818111B0
:1037C00007C081E09581911101C080E0817008956A
:1037D00081E0FCCFA6E0B0E0E0EFFBE10C944E27E7
:1037E00086E0E6EFF2E09E012F5F3F4FD9010190A6
:1037F0000D928A95E1F71092F8021092F902109258
:10380000FA021092FB028B819C81892B890188230B
:1038100091F08091F1029091F2020E94FF1F9C01B1
:103820008091F4028823C9F14091140150E04217BD
:10383000530708F43FC08D819E81892B882399F01E
:103840008091EF029091F0020E94FF1F9C018091F5
:10385000F302882309F467C04091100150E0421739
:10386000530708F46EC0B80186EF92E00E94081F6B
:10387000811105C086EF92E00E94D71B81110E9442
:10388000AC1B86E0F801A6EFB2E001900D928A959C
:10389000E1F72696E5E00C946A27409115019AE03D
:1038A000499FA00111244217530728F68F5F809388
:1038B000F40202C08F3FD1F7FB80FF2059F00E9435
:1038C000521A91E01F140CF09FEF899F802D112454
:1038D0008093F802FC80FF2059F00E94521A91E078
:1038E0001F140CF09FEF899F802D11248093F90203
:1038F0008091F802882309F49ECFF090F902FF200E
:1039000009F499CF0E94441A811101C081E080938B
:10391000F8028F2D0E94441A882319F08093F9022F
:103920008ACF81E0FBCF409111019AE0499FA0012D
:1039300011244217530708F096CF8F5F8093F3024C
:1039400002C08F3FD1F7FD80FF2059F00E949A1AE4
:1039500091E01F140CF09FEF899F802D112480931C
:10396000FA02FE80FF2059F00E949A1A91E01F147B
:103970000CF09FEF899F802D11248093FB02809192
:10398000FA02882309F46FCFF090FB02FF2009F4BC
:103990006ACF0E94441A811101C081E08093FA022B
:1039A0008F2D0E94441A882319F08093FB025BCF6D
:1039B00081E0FBCF0F931F93CF93DF93C42FD22FC0
:1039C000FC0185818823C9F04093FE020E94D61F26
:1039D0009093FD028093FC0280E28C0F883040F4CB
:1039E000C77081E001C0880FCA95EAF70E9492046F
:1039F000DF91CF911F910F9108951091FE02141342
:103A00003CC08091FC029091FD020E94FF1F883C07
:103A1000910598F5C0E2CD0F1D1741F180E2810FAD
:103A2000883040F4177081E001C0880F1A95EAF7DA
:103A30000E949904C83020F0802F0E948904D8CFBA
:103A400091E08D2F877001C0990F8A95EAF7892F31
:103A50000E949204802F0E948904D77081E001C0E7
:103A6000880FDA95EAF70E949904C2CF802F0E944E
:103A70008904C83008F0BCCFF0CF80E28C0F8830CA
:103A800008F0B6CFC77081E001C0880FCA95EAF789
:103A9000EACF0F93FC01CB01E851FC47E730F10579
:103AA00090F5E35EF64D0C943B2706E221EE41EEE5
:103AB0006AE17CE70E94DA1C80E00F91089507E23A
:103AC00025EE45EE6BE17CE7F5CF06E221EE40EE18
:103AD00068E17CE7EFCF07E225EE44EE69E17CE7A1
:103AE000E9CF06E221EE42EE6CE17CE7E3CF07E2AC
:103AF00025EE46EE6DE17CE7DDCF08E221E045EE04
:103B00006EE17CE7D7CFFB01858181111092FE0227
:103B100081E0D3CF90930403809303030895E09151
:103B20000303F0910403309729F00190F081E02D18
:103B30000995089580E00895E0910303F09104034E
:103B4000309721F00280F381E02D09950895DC0182
:103B5000E0910303F0910403309739F086E08C93F1
:103B60000480F581E02DCD0109950895DC01E091F7
:103B70000303F0910403309739F082E08C930680C0
:103B8000F781E02DCD0109950895A3E0B0E0EBECBD
:103B9000FDE10C9451279C01809101039091020357
:103BA00082179307A1F03093020320930103E09161
:103BB0000303F0910403309751F083E089833B8342
:103BC0002A830084F185E02DCE0101960995239684
:103BD000E2E00C946D27A3E0B0E0E1EFFDE10C948E
:103BE00051279C018091FF02909100038217930757
:103BF000A1F0309300032093FF02E0910303F091C2
:103C00000403309751F084E089833B832A83008446
:103C1000F185E02DCE01019609952396E2E00C9402
:103C20006D2720910601309107012E5F3F4F809153
:103C300020018823A9F08091110387FF11C02091F2
:103C40000401309105012E5F3F4F9DE180E0F901B5
:103C500040812F5F3F4F41118F5F9150C0F7089512
:103C600095E0F4CF882321F190912001992311F15F
:103C70009091110397FF1EC0982F96959695969553
:103C8000803FB0F4E0910401F0910501E90FF11DCE
:103C9000228130E0877041E050E0BA0102C0660F37
:103CA000771F8A95E2F72623372381E0232B91F4AF
:103CB00080E008952091060130910701F9013296C4
:103CC000285F3F4F9191981721F0E217F307D1F742
:103CD000EFCF81E008959C01FC0132968FEF90E0D8
:103CE0004191461751F08F3F19F4411101C0892FBE
:103CF0009F5F9630A9F78F3F09F40895280F311D73
:103D000087FD3A95F901628308959C01FC01329682
:103D1000285F3F4F8191861303C0DF0111971C92EA
:103D2000E217F307B9F70895FC01862F869586956B
:103D30008695603F60F4E80FF11D677021E030E088
:103D400001C0220F6A95EAF78281822B828308954F
:103D5000FC01862F869586958695603F80F4E80F56
:103D6000F11D677081E090E09C0102C0220F331FBB
:103D70006A95E2F7B90160958281682362830895AC
:103D8000682F80912001882359F08091110387FFCB
:103D900007C080910401909105010E94941E08952E
:103DA00080910601909107010E946B1E0895682F73
:103DB00080912001882359F08091110387FF07C06B
:103DC00080910401909105010E94A81E08958091A0
:103DD0000601909107010E94851E0895809120019F
:103DE000882379F08091110387FF0BC0E0910401D3
:103DF000F091050132968EE1DF011D928A95E9F777
:103E00000895E0910601F0910701329686E0F4CF23
:103E1000DC01FB0111969C9111978181981322C0BE
:103E200012968C911297882319F0928189131AC0E7
:103E300013968C911397882319F09381891312C0DC
:103E400015968C911597882319F0958189130AC0CE
:103E500014969C91992321F081E02481291303C0B9
:103E600080E001C081E08170089508950E94351FAF
:103E700008958F5F809305030E94361F089583E0A5
:103E8000809305030E94361F08950E94391F0895EC
:103E900081E0809305030E94361F08950E94481F09
:103EA0000895089508950E94521F08950895089551
:103EB0000E94511F0895CF930E94561F0E944211E5
:103EC0000E94571FC0E08C2F0E948A10811105C0EC
:103ED000CF5FC630C1F7CF91089581E0FCCF85B7A1
:103EE000806885BF85B7806885BF08951F921FB61B
:103EF0001F9211248F939F93AF93BF9380910603DA
:103F0000811113C080915A0390915B03A0915C03CF
:103F1000B0915D034196A11DB11D80935A0390930A
:103F20005B03A0935C03B0935D03BF91AF919F913E
:103F30008F911F901FBE1F9018958091620384304F
:103F400031F10E946A031092060388E190E020E4B8
:103F50000FB6F894A895809360000FBE2093600080
:103F600083B7817F846083BF83B7816083BF789488
:103F7000889583B78E7F83BF0FB6F894A8958091FC
:103F80006000886180936000109260000FBE089509
:103F90000E94F2060E946F03089582E084BD93E0C0
:103FA00095BD9AEF97BD80936E0008952FB7F89452
:103FB00080915A0390915B03A0915C03B0915D03E3
:103FC0002FBF0895A4E0B0E0E8EEFFE10C94512784
:103FD0008FB7F89420915A0330915B0340915C03B2
:103FE00050915D0329833A834B835C838FBF698142
:103FF0007A818B819C812496E2E00C946D279C0150
:104000004FB7F89480915A0390915B03A0915C03A1
:10401000B0915D034FBF821B930B089578941F925C
:104020001FB61F9211248F939F93AF93BF938091DC
:104030005A0390915B03A0915C03B0915D030196DC
:10404000A11DB11D80935A0390935B03A0935C0361
:10405000B0935D03BF91AF919F918F911F901FBE51
:104060001F90189587E797E79093010880930008C1
:1040700088E19AE00FB6F894A895809360000FBE8F
:1040800090936000FFCF88E19AE00FB6F894A8956E
:10409000809360000FBE90936000FFCF80910F036C
:1040A0000895282FCB01BA01309162033430E1F436
:1040B0002F702093E9002FEF3091E80035FD07C005
:1040C00035ED3A95F1F7000021502111F5CF2091FF
:1040D000E80025FF09C040E050E00E945522809191
:1040E000E8008E778093E8000895BC0143E050E03B
:1040F00082E00E9451200895BC0146E050E082E039
:104100000E9451200895BC0140E250E082E00E94EC
:1041100051200895CF93DF93D82FC92F48E050E066
:10412000682F792F81E00E94512088E0ED2FFC2F2D
:10413000A7E0B3E001900D928A95E1F7DF91CF916E
:10414000089580916103811109C00E94DD230E94BE
:104150003A248091E20084608093E20008951092F6
:10416000610308950E94481F089560915E0381E0F5
:10417000611101C080E00E943F1F08959091620389
:1041800081E0943009F080E060915E030E94451F59
:10419000089542E061EC81E00E94592342E261EC23
:1041A00082E00E9459239091620381E0943009F0EB
:1041B00080E060915E030E94391F0895809164033E
:1041C000893089F148F4823009F4A0C0833009F4C1
:1041D0005AC0813041F008958A3009F487C08B308D
:1041E00009F46CC0089580916303813A09F04AC0D4
:1041F0008091E800877F8093E80080916703909129
:104200006803892B61F060E080E090E070E00E943C
:10421000A4228091E8008B778093E800089568E0FD
:1042200087E093E0F3CF80916303813259F5809169
:10423000670390916803029728F58091E800877FD3
:104240008093E8008091E80082FF18C09091F3000D
:104250008091F200029731F48091F100813011F0E9
:10426000863021F48091F10080930F038091E80063
:104270008B778093E8000E948D2304C080916203B5
:104280008111E0CF089580916303813AD9F780913D
:10429000670390916803892BA9F78091E800877FD5
:1042A0008093E8008091E80080FFFCCF809120019E
:1042B0008093F1008091E8008E77DBCF80916303DB
:1042C000813201F78091670390916803892BD1F6C1
:1042D0008091E800877F8093E8000E948D23809181
:1042E0006503809320010E94F20608958091630384
:1042F000813241F68091E800877F8093E8000E9438
:104300008D23809166038093100308958091630349
:10431000813A09F0B7CF8091E800877F8093E80069
:104320008091E80080FFFCCF80911003C1CF84B75B
:10433000877F84BF0FB6F894A8958091600088614C
:1043400080936000109260000FBE80E890E00FB68E
:10435000F89480936100909361000FBE0E944E1FFD
:1043600008950E94DD230E943A24E2EEF0E080816D
:104370008460808378940E94BD26089586E191E050
:104380000E948A1D089580916203853031F48091E6
:104390006203853019F00E94C81F08950E949D1F76
:1043A00080916003882399F30E945B1F882379F32F
:1043B0000E943F220E94F206EACF08959A0140919E
:1043C000690350916A030E94E6210895AC01CB0174
:1043D000D901252F332723303105E1F058F421305E
:1043E0003105C9F122303105D9F180E090E020E0BB
:1043F00030E01EC02132310521F122323105A9F70A
:10440000892BC1F16130710581F786EB90E02EE6D2
:1044100033E00EC0CA019927413069F0823091051E
:1044200069F0EDE1F3E0892B01F7849190E09F01C1
:104430002D933C930895E9E0F3E0F7CFE9EEF2E045
:10444000F4CF892B91F06130710579F689E090E025
:104450002CE433E0EDCF82E190E02CE533E0E8CFCF
:104460008BE390E021E233E0E3CF89E090E023E3C7
:1044700033E0DECF84E490E024E234E0D9CF80E181
:1044800089BD82E189BD09B400FEFDCF8091D800CD
:104490008F7D8093D8008091E00082608093E0005F
:1044A0008091E00081FDFCCF0895AF92BF92CF9242
:1044B000DF92FF920F931F93CF93DF936C01EB0179
:1044C0008A010E94AC23F82E811123C00115110529
:1044D00039F0F80180819181C81BD90BC80ED91E13
:1044E000A12CB12C2097A9F08091E80085FD22C075
:1044F0008091E8008E778093E80001151105A1F006
:10450000F801808191818A0D9B1D9183808385E0D4
:10451000F82E8F2DDF91CF911F910F91FF90DF909B
:10452000CF90BF90AF9008950E94AC238823E1F212
:10453000F82EEFCFF60181916F018093F100219762
:10454000FFEFAF1ABF0ACECFFC019B018091690338
:1045500090916A038617970718F0672B61F0C901DD
:1045600040E0009771F441110CC08091E80082FF97
:1045700035C080E008958091E8008E778093E80050
:10458000EECF209162032223A9F12530A9F12091D9
:10459000E80023FD2DC02091E80022FDE6CF209108
:1045A000E80020FFDECF3091F3002091F200009769
:1045B00019F02830310558F041E02830310509F074
:1045C00040E02091E8002E772093E800CACF419187
:1045D0004093F10001972F5F3F4FE9CF8091620335
:1045E000882341F0853041F08091E80083FFBDCF02
:1045F00081E0089582E0089583E00895FC019B0125
:104600008091690390916A038617970718F0672BCA
:1046100061F0C90140E0009771F441110CC0809134
:10462000E80082FF36C080E008958091E8008E7730
:104630008093E800EECF209162032223B1F1253070
:10464000B1F12091E80023FD2EC02091E80022FD69
:10465000E6CF2091E80020FFDECF3091F3002091DB
:10466000F200009719F02830310558F041E0283069
:10467000310509F040E02091E8002E772093E80012
:10468000CACF44914093F100319601972F5F3F4F7D
:10469000E8CF80916203882341F0853041F080911A
:1046A000E80083FFBCCF81E0089582E0089583E0B5
:1046B0000895982F973028F08F708093E90081E05B
:1046C00008959093E900242F762F50E0981731F049
:1046D0007091EC002091ED005091F00021FD02C09E
:1046E0009F5FE8CF3091EB003E7F3093EB0030913D
:1046F000ED003D7F3093ED003091EB003160309361
:10470000EB007093EC002093ED005093F0002091AB
:10471000EE0027FDE5CF80E008958091630387FFD9
:1047200013C08091E80082FF06C08091E8008B777B
:104730008093E80004C0809162038111F2CF089554
:10474000809162038823D9F38091E80080FFF8CF3D
:104750008091E8008E77ECCF2091E4003091E50065
:1047600095E6A9018091EC008170882331F0809159
:10477000E80080FF06C080E008952091E80022FD57
:104780001BC080916203882391F0853091F0809165
:10479000EB0085FD10C02091E4003091E500421748
:1047A000530701F391509111DCCF84E0089582E02A
:1047B000089583E0089581E008950E944C240E94AA
:1047C0005424E0EEF0E0808181608083E8EDF0E049
:1047D00080818F77808319BCA7EDB0E08C918E7FAC
:1047E0008C9380818F7E80831092610308950F9354
:1047F0001F93CF93DF930E944C240E945424C8ED52
:10480000D0E088818F7788838881806888838881D9
:104810008F7D888319BC1092620310925E03109200
:10482000600310925F0300EE10E0F80180818B7F3F
:10483000808388818160888342E060E080E00E941C
:104840005923E1EEF0E080818E7F8083E2EEF0E09C
:10485000808181608083808188608083F80180818D
:104860008E7F8083888180618883DF91CF911F91C3
:104870000F910895E8EDF0E080818F7E8083E7ED71
:10488000F0E080818160808384E082BF81E080935A
:1048900061030E94F7230895E8EDF0E080818E7FA8
:1048A00080831092E20008951092DA001092E100E5
:1048B00008951F920F920FB60F9211242F933F93DA
:1048C0004F935F936F937F938F939F93AF93BF9318
:1048D000EF93FF938091E10082FF0BC08091E20093
:1048E00082FF07C08091E1008B7F8093E1000E94EE
:1048F000BC268091DA0080FF19C08091D80080FF2B
:1049000015C08091DA008E7F8093DA008091D90003
:1049100080FF94C080E189BD82E189BD09B400FEB9
:10492000FDCF81E0809362030E94A1208091E1008D
:1049300080FF19C08091E20080FF15C08091E200E5
:104940008E7F8093E2008091E20080618093E2009C
:104950008091D80080628093D80019BC85E0809354
:1049600062030E94B5208091E10084FF29C08091FC
:10497000E20084FF25C080E189BD82E189BD09B4E0
:1049800000FEFDCF8091D8008F7D8093D80080916C
:10499000E1008F7E8093E1008091E2008F7E809322
:1049A000E2008091E20081608093E20080915E03EA
:1049B000882309F449C084E0809362030E94BE20EA
:1049C0008091E10083FF29C08091E20083FF25C030
:1049D0008091E100877F8093E10082E08093620311
:1049E00010925E038091E1008E7F8093E1008091C0
:1049F000E2008E7F8093E2008091E20080618093EC
:104A0000E20042E060E080E00E9459238091F000E3
:104A100088608093F0000E94B220FF91EF91BF91D7
:104A2000AF919F918F917F916F915F914F913F9146
:104A30002F910F900FBE0F901F90189519BC1092D8
:104A400062030E94AF2072CF8091E30087FF02C013
:104A500083E0B2CF81E0B0CF1F920F920FB60F92DA
:104A60001124FF920F931F932F933F934F935F93C4
:104A70006F937F938F939F93AF93BF93CF93DF9366
:104A8000EF93FF9309EE10E0F8018081C091EC00F4
:104A9000C795CC27C7958F70FC2EF82A1082C0EFDF
:104AA000D0E08881877F888378940E947525F801FB
:104AB0001082888188608883CF2DCF70C083FF915A
:104AC000EF91DF91CF91BF91AF919F918F917F91A6
:104AD0006F915F914F913F912F911F910F91FF9097
:104AE0000F900FBE0F901F901895AAE2B0E0EBE771
:104AF000F5E20C94502783E693E0FC0101962091A7
:104B0000F100208323E08B369207B9F70E94DE2064
:104B10008091E80083FF38C0809163039091640323
:104B20009A3090F5E92FF0E0EC5DF64D0C943B27C0
:104B3000803889F0823841F5809167038F70873023
:104B400018F58093E9008091EB0085FB882780F9B8
:104B50001092E90006C080915F039091600391116B
:104B600082609091E800977F9093E8008093F10035
:104B70001092F1008091E8008E7723C0811116C059
:104B800080916503813011F18091E80083FF0AC0B4
:104B90008091E800877F8093E8008091EB0080623D
:104BA0008093EB00AA96E3E00C946C27823061F7C7
:104BB00080916503882389F01092E9008091E800D4
:104BC000877F8093E8000E948D23DECF81E09330C1
:104BD00009F080E080936003EFCF809167038F70CE
:104BE0002FEF280F263080F68093E9002091EB000C
:104BF00020FFE2CF933031F48091EB00806280930C
:104C0000EB00DACF9091EB0090619093EB0021E004
:104C100030E0A90102C0440F551F8A95E2F7409386
:104C2000EA001092EA008091EB008860E8CF8111E1
:104C3000ABCF109165031F778091E3008078812BC3
:104C40008093E3008091E800877F8093E8000E94D2
:104C50008D238091E80080FFFCCF8091E300806885
:104C60008093E30083E0111101C082E0809362032E
:104C70008BCF8058823008F087CF80916503909168
:104C800066038C3D53E0950799F583E08A838AE2B9
:104C900089834FB7F894DE01139620E03EE051E29D
:104CA000E32FF0E050935700849120FF03C08295DA
:104CB0008F703F5F8F708A30C8F0895C90E08D9371
:104CC0009D932F5F243161F74FBF8091E800877F6C
:104CD0008093E8006AE270E0CE0101960E94A4226F
:104CE0008091E8008B778093E8004ECF805DE6CF1F
:104CF0006091670370916803AE014F5F5F4F0E9440
:104D0000DE21BC01892B09F43FCF8091E800877F29
:104D10008093E80089819A810E94FE22E1CF803849
:104D200009F032CF8091E800877F8093E80080917E
:104D30005E038093F1001ECF811126CF9091650311
:104D4000923008F021CF8091E800877F8093E800BF
:104D500090935E030E948D2380915E03882331F03F
:104D600084E0809362030E94C9200ECF8091E3000B
:104D700087FDF6CF81E0F5CF0895CF938091620350
:104D8000882399F08091E900C091EC00C795CC2769
:104D9000C7958F70C82B1092E9008091E80083FDC1
:104DA0000E947525CF70C093E900CF910895991B9B
:104DB00079E004C0991F961708F0961B881F7A9512
:104DC000C9F78095089587FB082E062687FD8195F3
:104DD00067FD61950E94D7260EF4919507FC819599
:104DE0000895AA1BBB1B51E107C0AA1FBB1FA61732
:104DF000B70710F0A61BB70B881F991F5A95A9F784
:104E000080959095BC01CD01089597FB072E16F46F
:104E1000009407D077FD09D00E94F12607FC05D049
:104E20003EF4909581959F4F0895709561957F4FC1
:104E30000895A1E21A2EAA1BBB1BFD010DC0AA1FDB
:104E4000BB1FEE1FFF1FA217B307E407F50720F0F3
:104E5000A21BB30BE40BF50B661F771F881F991F6E
:104E60001A9469F760957095809590959B01AC01B7
:104E7000BD01CF010895EE0FFF1F0590F491E02DC5
:104E800009942F923F924F925F926F927F928F92EE
:104E90009F92AF92BF92CF92DF92EF92FF920F93C9
:104EA0001F93CF93DF93CDB7DEB7CA1BDB0B0FB6D3
:104EB000F894DEBF0FBECDBF09942A883988488890
:104EC0005F846E847D848C849B84AA84B984C88426
:104ED000DF80EE80FD800C811B81AA81B981CE0F1D
:104EE000D11D0FB6F894DEBF0FBECDBFED01089502
:104EF000002E083090F0982F872F762F652F542F93
:104F0000432F322F22270850F4CF220F331F441F84
:104F1000551F661F771F881F991F0A95B2F7002D2E
:104F2000089597FD1094002E083098F00850232F14
:104F3000342F452F562F672F782F892F912DF4CF9F
:104F400015949795879577956795579547953795D4
:104F500027950A95AAF71124002D08958F929F9204
:104F6000AF92BF92CF92DF92EF92FF92CF93DF93F7
:104F7000EC01688179818A819B81611571058105C8
:104F8000910521F464E279ED8BE597E02DE133EFB3
:104F900041E050E00E94852849015A019B01AC0183
:104FA000A7EAB1E40E94A4286B017C01ACEEB4EF47
:104FB000A50194010E94B228DC01CB018C0D9D1D3E
:104FC000AE1DBF1DB7FF03C00197A109B04888837C
:104FD0009983AA83BB839F77DF91CF91FF90EF9056
:104FE000DF90CF90BF90AF909F908F9008950E94D8
:104FF000AE27089580E091E00E94AE270895B0E0CA
:10500000A0E08093000190930101A0930201B0936E
:1050100003010895FC014150504030F00190061604
:10502000D1F73197CF010895882799270895FB017B
:10503000DC0104C08D910190801921F44150504051
:10504000C8F7881B990B0895FB01DC0102C0019091
:105050000D9241505040D8F70895F999FECF92BD76
:1050600081BDF89A992780B50895A6E1B0E044E0A3
:1050700050E00C947728A8E1B0E042E050E00C94B6
:105080007728DC01A40FB51F4150504048F0CB01F8
:10509000840F951F2E910E94522841505040D0F706
:1050A0000895262FF999FECF92BD81BDF89A0197F8
:1050B00000B4021639F01FBA20BD0FB6F894FA9A60
:1050C000F99A0FBE08950396272F0E9452280E9436
:1050D0005128252F0E945228242F0C9452280196E3
:1050E000272F0E9452280C945128DC01CB01FC018F
:1050F000F999FECF06C0F2BDE1BDF89A319600B431
:105100000D9241505040B8F70895052E97FB1EF4BC
:1051100000940E949C2857FD07D00E94192707FC85
:1051200003D04EF40C949C285095409530952195D1
:105130003F4F4F4F5F4F08959095809570956195C3
:105140007F4F8F4F9F4F08950E94B728A59F900DC6
:10515000B49F900DA49F800D911D11240895B7FF59
:105160000C94A4280E94A428821B930B0895A29F4C
:10517000B001B39FC001A39F700D811D1124911D2B
:10518000B29F700D811D1124911D0895F894FFCFD9
:10519000DE04DE04250525058A05A7050D050D0598
:1051A000AC05230634063406A417AB17B217B7179D
:1051B000BC17C117C617CB17D017D517DA17DF17CB
:1051C000E317E817A617EB17A617A617A617A61733
:1051D000EE17C019341AC81992199619CC199A19D0
:1051E000D019DC19A6192D1AAA19E019AE19E4195B
:1051F0000C1AB219E819131AB819EE19F6199E19F2
:10520000D419A219D819BC19F219021A1C1A2B1A8E
:105210008C19C4193B1AFA1AFD1A031B181B181B08
:10522000181B181B181B181B181B181B061B0B1B05
:105230000F1B151B261B2C1B301B651D6B1D551DC5
:105240005F1D711D771D7D1D9825BE25C425BE25BA
:0C525000C42517263926C4258F269C266D
:10525C00010000004602660200110011110128082D
:10526C0050011E0A14014E208A2083207C207520B8
:10527C0001E200E900EA00B500B600B700CD0083FA
:10528C0001CC008A019201940121022302240225FF
:10529C0002260227022A02B300B4006F0070009F9E
:1052AC0001CB019F02A002E200E900EA00B500B6C2
:1052BC0000B700CD008301CC008A0192019401213A
:1052CC0002230224022502260227022A02B300B47A
:1052DC00006F0070009F01CB019F02A0029190947F
:1052EC006697C63435F4F500010202020206060682
:1052FC000909090909090F10101010101000FF01FD
:10530C0000010000FFFF0000010001FF003132F737
:02531C0033005C
:00000001FF
