:100000000C9434020C9451020C9451020C94510241
:100010000C9451020C9451020C9451020C94510214
:100020000C9451020C9451020C948C240C945F2576
:100030000C94A91F0C9451020C9451020C9451027F
:100040000C9451020C9451020C9451020C945102E4
:100050000C9451020C9441200C9451020C945102C6
:100060000C9451020C9451020C9451020C945102C4
:100070000C9451020C9451020C9451020C945102B4
:100080000C9451020C9451020C9451020C945102A4
:100090000C9451020C9451020C9451020C94510294
:1000A0000C9451020C9451020C945102A8000000CF
:1000B0000000207853005400550056005F00600097
:1000C000610057005C005D005E00000059005A00AE
:1000D0005B00000062006300580000001E0F056412
:1000E0003214783C1E1E140A052223252628292AAC
:1000F0002C2D2F3032333536383A3B3D3E4042438B
:100100004547494A4C4E5051535557595A5C5E60C9
:1001100062646668696B6D6F71737577797B7D7FDB
:1001200081838587898A8C8E90929496989A9C9EDA
:100130009FA1A3A5A7A8AAACAEAFB1B3B4B6B8B9F6
:10014000BBBCBEBFC1C2C3C5C6C7C9CACBCCCDCE5E
:10015000D0D1D2D2D3D4D5D6D7D7D8D9D9DADADB41
:10016000DBDBDCDCDCDCDCDDDDDDDDDCDCDCDCDCCD
:10017000DBDBDBDADAD9D9D8D7D7D6D5D4D3D2D20C
:10018000D1D0CECDCCCBCAC9C7C6C5C3C2C1BFBEF4
:10019000BCBBB9B8B6B4B3B1AFAEACAAA8A7A5A35F
:1001A000A19F9E9C9A98969492908E8C8A8987851E
:1001B00083817F7D7B79777573716F6D6B696866FD
:1001C0006462605E5C5A5957555351504E4C4A49CF
:1001D00047454342403E3D3B3A3836353332302F77
:1001E0002D2C2A29282625232200010101010101A5
:1001F00001010102020202020202020203030303DE
:1002000003030303040404040404040505050505AD
:10021000060606060607070707070808080809096B
:1002200009090A0A0A0B0B0B0C0C0C0D0D0D0E0E16
:100230000E0F0F0F101011111112121313141415A9
:100240001516161717181819191A1A1B1B1C1D1D1D
:100250001E1E1F2020212222232424252626272873
:1002600029292A2B2C2D2D2E2F30313232333435A3
:10027000363738393A3B3C3D3E3F404142434445A6
:10028000464748494A4C4D4E4F5051535455565885
:10029000595A5B5D5E5F616264656668696B6C6D2F
:1002A0006F7072737577787A7B7D7E8082838587A5
:1002B000888A8C8E8F91939596989A9C9EA0A2A3E3
:1002C000A5A7A9ABADAFB1B3B5B7BABCBEC0C2C4E8
:1002D000C6C9CBCDCFD1D4D6D8DBDDDFE2E4E7E9A8
:1002E000EBEEF0F3F5F8FAFDFF1E03720069006F04
:1002F000005F006E0075006D007000610064005FBB
:1003000000340078003600000012036900760061B6
:10031000006E002D00720069006F000000040309E8
:100320000409023B00020100A0FA090400000103D5
:100330000101000921110100012244000705810388
:100340000800010904010001030000000921110156
:10035000000122B6000705820320000112010002FD
:1003600000000008EDFE000000010102000105018F
:100370000902A10185020901A10005091901290845
:100380001500250195087501810205010930093123
:100390001581257F95027508810609381581257F0D
:1003A000950175088106050C0A38021581257F958F
:1003B0000175088106C0C005010980A101850319E6
:1003C000012AB700150126B700950175108100C0FC
:1003D000050C0901A101850419012AA002150126B5
:1003E000A002950175108100C005010906A10185D3
:1003F00006050719E029E715002501950875018113
:10040000020507190029EF1500250195F0750181F6
:1004100002050819012905950575019102950175D7
:10042000039101C005010906A101050719E029E7AB
:100430001500250195087501810295017508810156
:100440000507190029FF150026FF0095067508818C
:10045000000508190129051500250195057501916B
:1004600002950175039101C011241FBECFEFDAE0A0
:10047000DEBFCDBF11E0A0E0B1E0E2ECF2E502C0EA
:1004800005900D92A23CB107D9F723E0A2ECB1E0B0
:1004900001C01D92AD36B207E1F70E94D2110C9453
:1004A000F9280C940000811108C089EA611101C08B
:1004B0008AEA0E948D0480E008958130E1F7662386
:1004C00019F00E94A016F7CF0E944514F4CF8111B5
:1004D00011C0663078F4443068F484E0689FF0011D
:1004E0001124E40FF11DEE0FFF1FE455FF4F85911E
:1004F0009491089581E090E008950E946702089524
:1005000081E008950E948002089581E008950E948C
:10051000800208950E948702089508950E948D0226
:100520000895A6E0B0E0E7E9F2E00C948327498360
:100530005A839E833091C90189819A8131111AC0F1
:100540003E81332399F0222389F00E944708182F17
:10055000682F89819A810E94240869817A81812F7C
:100560000E94450F2696E3E00C949F270E943508D1
:10057000182FF3CF0E94470869817A81F1CFFC01DF
:10058000262F4081518162817381848195810E94EF
:1005900091020895CF93DF93D82FC92F61E00E9475
:1005A000BF026D2F7C2F0E948202DF91CF910895B0
:1005B000CF93DF93D82FC92F60E00E94BF026D2F29
:1005C0007C2F0E948E02DF91CF91089581E00895E3
:1005D0000E94E6020895CF93C82F0E94F6068C2F42
:1005E0000E94E8022FEF84E39CE02150804090407D
:1005F000E1F700C00000CF91089581E00E94EB0276
:100600000E946520089580E00E94EB020E947620FF
:1006100008950F931F93CF93DF938C0161E00E94A5
:10062000BF02EC01F801858181110E94A117B80178
:10063000CE010E948A028823E1F1B801CE010E9416
:100640007C1D8823B1F1B801CE010E949B1988233B
:1006500081F1B801CE010E947019882351F1B801CF
:10066000CE010E94C117882321F1F80185818823DA
:1006700081F0CA35FCE7DF0739F178F4C130ECE7E7
:10068000DE07F9F0C330FCE7DF07C9F0C115DC472E
:1006900071F0C8010E9485020DC0CB35ECE7DE0782
:1006A000B1F0CC35DC47A9F70E947B0CF2CF0E9459
:1006B000FD0280E0DF91CF911F910F9108950E947C
:1006C0008D0C0E940303F5CF0E94850CE2CF0E949F
:1006D000890CDFCF0E94861F0E9495030E94261678
:1006E00008950E9499030E941F170E948B1F08956E
:1006F000089581E008950895CF93DF93D82F0E9445
:100700007903C82F882319F08D2F0E947B038C2F2B
:10071000DF91CF9108950895CF93C82F0E94780359
:100720008C2F0E947C03CF91089580E00E948C035F
:1007300008950E94C21D0E948C030895CF930E94C9
:10074000C21DC82F8091C4018C1779F0C093C401D9
:100750000E9415206093C5017093C6018093C70164
:100760009093C8018C2F0E948C03CF910895ADE027
:10077000B0E0EDEBF3E00C948427488759876A8753
:100780007B878C879D8791110E94860B1F8286E054
:10079000FE013896DE01119601900D928A95E1F7DF
:1007A0008D8181110DC029813A814B815C816D81E0
:1007B0007E818F810E94CC0A2D96E2E00C94A027C6
:1007C000CE0101960E94CA028111EDCFF5CFFC0146
:1007D0008481813021F4808191810E94790808957B
:1007E000662329F00E94091B0E94DF1B08950E94C6
:1007F000671BFACFCF93C82F882399F08CEF8C0F0B
:10080000813A88F48C2F0E94651E882329F08C2F52
:100810000E940A1F0E941E0C8C2F0E94F31E0E9431
:100820001E0CCF91089580E28C0F883048F4C77079
:1008300081E001C0880FCA95EAF70E94670BEFCFED
:100840008BE58C0F833038F42C2F2452330BC901E5
:100850000E94F81DE6CFE8E5EC0FEB3150F4F0E034
:10086000EE0FFF1FEF5DFE4F808191810E941E1EE3
:10087000D8CF83E38C0F8331A0F661E08C2F0E94E8
:10088000F003CFCF882381F19CEF980F913A28F4A1
:100890000E940A1F0E941E0C089590E2980F983043
:1008A00050F4877091E001C0990F8A95EAF7892F7B
:1008B0000E946D0BEFCF9BE5980F933028F480E0FA
:1008C00090E00E94F81D089598E5980F9B3128F458
:1008D00080E090E00E941E1E089593E3980F9331EC
:1008E00018F460E00E94F00308951F93CF93DF9304
:1008F000182FEB010E94FA03209739F4812F0E94F0
:100900004204DF91CF911F9108958FE99FE00197F5
:10091000F1F700C000002197EFCF60E070E089336D
:1009200011F460E570E00E9475040895882321F0B9
:100930000E94670B0E941E0C0895882321F00E94DC
:100940006D0B0E941E0C0895A0E0B0E0EAEAF4E00E
:100950000C947E276C01D62FC72FFC0115810681D0
:1009600002950F700E945C0BE82E8823F9F0E12EAF
:100970001123E1F08C2F807F803461F080E28D0FB5
:100980008830F0F08C2F807E803221F4D230C0F09D
:100990000023B1F08091140382FF12C082E00E9414
:1009A0004E0C0E945C0B91E0E82EE926EC2FE295BC
:1009B000EF70C03CB0F5F0E0E550F74D0C946E27B9
:1009C000E12CF4CF0C2F0F70C03110F00295007F96
:1009D000112399F0002359F080E28D0F883010F038
:1009E000D11107C0802F0E94670B0E941E0C8D2F13
:1009F00051C0802F0E94780BF8CF8D2F0E944204A7
:100A0000002379F080E28D0F883010F0D11104C0FE
:100A1000802F0E946D0B03C0802F0E947E0B0E94CE
:100A20001E0CEE2089F00E94580B80FD0DC0F601CF
:100A300015820E94520B0E948107C6010E94BD06CA
:100A40000E94520B0E949107CDB7DEB7E8E00C94EC
:100A50009A27FC2FFF70FF2EC07FC03219F0F2944E
:100A600080EFF822DD2341F0D130D1F1112309F4D8
:100A700044C00023F1F0BBCF8091140382FD15C068
:100A8000112359F0FF2029F08F2D0E94670B0E943F
:100A90001E0C80E00E94FA03C4CF80E00E94420452
:100AA000FF2009F4BECF8F2DB4CF112369F00111BF
:100AB00004C08F2D0E949604B4CF013009F0B1CF4D
:100AC0008F2D0E949E0BADCF0111ABCF8F2D0E94B9
:100AD0009D048F2D0E94AA0B8F2D0E948D0BA1CFFC
:100AE000112321F0063008F09CCFE3CF053008F049
:100AF00098CF8F2D0E949D0494CF0023D1F3D9333A
:100B000049F42FEF87EE93E0215080409040E1F7C9
:100B100000C000008D2F0E94420483CF8C2F869549
:100B200086958370882369F0813009F07ACF8D2F04
:100B30009C2F9370111102C080E090E00E941E1E55
:100B400070CF8D2F9C2F9370111102C080E090E028
:100B50000E94F81D66CF612F8D2F0E94F00361CF98
:100B60008C2F8370811139C0111129C04D2F4295EE
:100B700046954770440F440F2D2F2F7030E0042E00
:100B800002C0220F331F0A94E2F780E090E0D4FF06
:100B900009C08FE090E002C0880F991F4A95E2F7E4
:100BA00080959095C695C695C370822B932BC230C5
:100BB00071F0C33079F0C13039F00E9451070E94C2
:100BC000C21D0E948C032DCF0E944807F8CF0E94BF
:100BD0005A07F5CF0E944507F2CF112361F1C0FFFC
:100BE000EECF4D2F429546954770440F440F2D2F61
:100BF0002F7030E0042E02C0220F331F0A94E2F758
:100C000080E090E0D4FF09C08FE090E002C0880F40
:100C1000991F4A95E2F780959095C695C695C37041
:100C2000822B932BC23069F0C33071F0C13031F0A8
:100C30000E94BC07C4CF823010F2D3CF0E94B3070A
:100C4000BECF0E94C507BBCF0E946907B8CFCF7047
:100C5000112339F08C2F0E9481078D2F0E9496045A
:100C6000AECF8D2F0E949D048C2F0E949107A7CF9D
:100C7000D23F31F170F4D03FB9F0D13FB1F111233F
:100C800009F451C0002309F44BC08D2F0E94FA03D0
:100C900096CFD33FE1F0D43F21F11111F3CF0111F1
:100CA00050C08C2F8F71E1CF112341F0053008F037
:100CB00086CF8C2F8F710E94A30781CF0530F7CF8D
:100CC0008C2F8F711111D1CF0E94810778CF112302
:100CD00029F08C2F8F710E94750771CF0E947007C9
:100CE0006ECF8091140382FD06C08C2F8F7111236B
:100CF00009F4BBCFE9CF112349F0CF718C2F0E94AB
:100D0000810763E08C2F0E94300C59CF81E00E9454
:100D10004E0C023008F453CF82E00E944E0C4FCFAD
:100D20008C2F8F71D1CF002309F4BBCFD93349F475
:100D3000EFEFF7EE23E0E150F0402040E1F700C094
:100D400000008D2F0E9442043ACF0F931F93CF9340
:100D5000DF93EC01688179818D810E9486088C0186
:100D60000E94CE070E944407B801CE010E94A4044D
:100D7000DF91CF911F910F910895CF93DF93EC01F5
:100D80008C81882399F0CE010E940903811111C042
:100D90000E945C0B882351F08D81882339F080916B
:100DA000140382FF03C082E00E944E0CDF91CF91BA
:100DB0000895CE010E94A506CE010E94D802F6CF6A
:100DC00080E090E00E94F81D80E090E00E941E1EEE
:100DD0000E94860B0E941E0C0E94FC1B0E94DF1BBF
:100DE00008950E94211F0E94E00608950E94750B3D
:100DF0000E94F1060895282F92959F70963091F0E9
:100E000060F4925F9F70923030F481E0203F79F07F
:100E100030F4283E30F080E008959A5FF3CF243F0D
:100E2000D1F7089581E0283EE0F3213FF9CF0895FE
:100E3000FC018481882339F0808191810E947908A6
:100E40000E94FB06089580E00895A6E0B0E0EBE282
:100E5000F7E00C9484272696E2E00C94A027A7E004
:100E6000B0E0E5E3F7E00C9484272796E2E00C94E9
:100E7000A02708950E94390708950E943A07909389
:100E8000D9018093D801089508950E943D070895DF
:100E90002091D8013091D901822B932B0E943D07DC
:100EA00008952091D8013091D901822393230E9483
:100EB0003D0708952091D8013091D90182279327C9
:100EC0000E943D0708950E94390708950E94630714
:100ED00008950E9466079093D7018093D6010895E4
:100EE00080E090E00E946907089521E030E0A901C8
:100EF00002C0440F551F8A95E2F7CA010E94690794
:100F0000089521E030E002C0220F331F8A95E2F7F6
:100F10008091D6019091D701822B932B0E94690773
:100F2000089521E030E002C0220F331F8A95E2F7D6
:100F3000209530958091D6019091D70182239323FB
:100F40000E946907089521E030E002C0220F331F9C
:100F50008A95E2F78091D6019091D7018227932755
:100F60000E94690708952091D6013091D701822B04
:100F7000932B0E94690708952091D6013091D701E3
:100F8000822393230E94690708952091D60130910E
:100F9000D701822793270E946907089508959B012E
:100FA000677091E001C0990F6A95EAF763E03695A2
:100FB00027956A95E1F7220F331F220F331FFA019D
:100FC000E20FF31F40E050E0682F70E08191DF01F5
:100FD00011979B01042E02C0369527950A94E2F7DB
:100FE000217021952827292328272C934F5F5F4FB5
:100FF0004430510559F708959C01982F977083E06C
:10100000369527958A95E1F7220F331F220F331F5C
:10101000FB01E20FF31F40E050E080E0219130E05F
:10102000092E02C0369527950A94E2F721703327DE
:10103000042E01C0220F0A94EAF7822B4F5F5F4F04
:101040004430510559F70895282F862F963060F4C3
:10105000243050F434E0939FB0011124620F711DCD
:101060004AEC51E00E94CF070895282F963068F48B
:10107000843058F434E0939FC00111246AEC71E08D
:10108000820F911D0E94FC07089580E00895A0E062
:10109000B0E0EDE4F8E00C947D278C01E090D601FF
:1010A000F090D7018091D8019091D901E82AF92ACE
:1010B000CFE0D0E0CC24C394D12CC6010C2E02C0CA
:1010C000880F991F0A94E2F78E219F21892B49F4FA
:1010D000219798F7B12C8B2DCDB7DEB7E9E00C94B2
:1010E0009927BC2EB8018C2F0E94510F019781F3D4
:1010F000F2CFCF93DF93D82FC92F0E9447086D2FCF
:101100007C2F0E94510FDF91CF9108951F93CF93B1
:10111000DF93162FD72F9091C901992341F0862F85
:10112000972F0E947908DF91CF911F91089588230E
:1011300081F0862F972F0E944708C82F682F812F94
:101140009D2F0E942408612F7D2F8C2F0E94510F0C
:10115000EACF862F972F0E943508C82FF4CF0F9320
:101160001F93CF93E091DA01C7E08091DB018E13EA
:1011700004C0CF911F910F9108950E2F10E0CE9FC4
:10118000F0011124E452FE4F2081318142815381CC
:101190006481758186810E942F07F8013196E7707E
:1011A000E4CF209114023091150240911602509123
:1011B0001702609118027091190280911A020E9420
:1011C0002F07089580911A02803178F480911902D6
:1011D000882359F0E091DA012091DB01309115026A
:1011E0004091140257E02E1301C008956E2F70E055
:1011F0005E9FF0011124DF01A452BE4F14968C9122
:101200001497882361F111968C911197831327C04D
:101210008C91841324C015968C91159781111FC051
:1012200012968D919C91A0911602B09117028A1B83
:101230009B0B883C910598F480911A028F70806115
:1012400080931A02EE51FE4F80818F7080618083FF
:1012500084E192E00E94BD060E94AF080895FB0160
:101260003196E770C0CFE091DA019091DB0127E081
:10127000E91302C080E00895AE2FB0E02E9FF00188
:101280001124E452FE4F3181361306C030813813E9
:1012900003C03581341304C0FD013196E770E8CFF7
:1012A00081E008958F929F92AF92BF92DF92EF926A
:1012B000FF920F931F93CF93DF93CDB7DEB72D9798
:1012C0000FB6F894DEBF0FBECDBF8C0186E0F801EB
:1012D000DE01189601900D928A95E1F7F801E08001
:1012E000F580A280B380848194E1892E92E0992ECA
:1012F0009091180291111BC0882309F4FCC0FF20B3
:1013000009F43DC1C8010E941807882309F437C1B8
:1013100087E0F801D40101900D928A95E1F7C401AC
:101320000E94E7030E94E2080E94D108E4C0D09026
:1013300019022091160230911702A501421B530B8E
:10134000DD2009F4DBC0483C510508F0A6C0882325
:1013500009F4D1C090911502918080911A028031D8
:1013600008F06BC0991228C0909114029E1124C0FD
:10137000F1105DC08F70806180931A020E94D108C5
:1013800084E192E00E94BD0680911A02F8018683F2
:10139000F12C8F2D2D960FB6F894DEBF0FBECDBF6A
:1013A000DF91CF911F910F91FF90EF90DF90BF9051
:1013B000AF909F908F900895F11039C040E0692D53
:1013C0008E2D0E94330940E0692D8E2D0E94330935
:1013D000F82E8111DDCF888599850E947908292F03
:1013E00022952F70903450F49F70223080F0992312
:1013F00099F0F8019681903178F4CBCF2A5F2F7065
:10140000223078F0C8010E94BD06FD2CC2CF99237E
:1014100019F0882309F4BDCF805E883008F4B9CF75
:10142000F1CF803F08F4B5CF815F8230F7CF809154
:101430001A02816080931A02ABCF991207C0909173
:1014400014029E1103C0FF2009F479C0C8010E9454
:101450001807882309F493C0FF2009F490C08091F5
:101460001A02803288F020911402309115023A83DA
:101470002983BC82AB82909118029D831E828F8348
:10148000CE0101960E94BD0687E0F801A4E1B2E01A
:1014900001900D928A95E1F745CF90911A02903113
:1014A000A0F4488559856A857B858C859D850E9439
:1014B000250784E192E00E94BD0687E0F4011192C5
:1014C0008A95E9F70E94D10863CF8823A1F0209183
:1014D000150281812813BACF809114028E11B6CFE4
:1014E000F110B4CF9683C8010E94BD0687E0F401D5
:1014F00011928A95E9F7FF24F3944BCF483C5105AC
:1015000008F041C08823B9F3FF20C9F1909115027A
:10151000818198132AC0809114028E1126C0809177
:101520001A0280FD19C08031B8F08683807F803F29
:1015300039F08681982F907F905F8F70892B8683FA
:10154000C8010E94BD0687E0F801A4E1B2E0019065
:101550000D928A95E1F7E8CE87E0F801A4E1B2E0C8
:1015600001900D928A95E1F7C6CFC8010E94180735
:1015700081118ACF80911A02816080931A02C8017A
:101580000E94BD06B8CF488559856A857B858C85C4
:101590009D850E94250791CFAEE0B0E0E2EDFAE034
:1015A0000C948327288739874A875B876C877D87D8
:1015B0008E87CE0108960E9452098823B1F06C856F
:1015C000662341F0288539854A855B857D858E8532
:1015D0000E942F0717E08091DA019091DB018913B7
:1015E0003EC02E96E3E00C949F2787E0FE013896DC
:1015F000DE01119601900D928A95E1F72091DB01B1
:101600004091DA018C85882329F330E0C9010196E5
:101610008770992750E08417950799F097E0929F7B
:10162000D001939FB00D1124A452BE4FFE013196FC
:1016300001900D929A95E1F78093DB010E94AF082B
:10164000C9CF0E94F6061092DB011092DA0187E002
:10165000E4E1F2E0DF011D928A95E9F7BBCF189F24
:10166000C001112484529E4F0E945209882309F41C
:10167000B8CFE091DA011E9FF0011124E452FE4F31
:1016800020813181428153816481758186810E94EC
:101690002F078091DA0190E0019687709927809357
:1016A000DA0199CF809143028695869586950895B3
:1016B000809143028770089590914302977081E072
:1016C000911101C080E0089580916F02089590917A
:1016D0006F02982B90936F020895982F90958091A8
:1016E0006F02892380936F02089510926F0208950C
:1016F00090916E02982B90936E020895982F90957A
:1017000080916E02892380936E02089510926E027A
:10171000089508950E94890B089590914402292FFD
:101720002823222331F080958923809344020E944C
:101730008A0B089508950E949A0B0895909145028E
:10174000292F2823281729F0982B909345020E94CF
:101750009B0B089590914502292F2823222331F0D5
:1017600080958923809345020E949B0B0895809168
:101770004502882329F01092450280E00E949B0BCD
:101780000895CF93DF93C0916F0280916E02C82BB2
:10179000D0914502DD2331F00E94441E81110E9448
:1017A000B70BCD2B8C2FDF91CF910895CF93DF9383
:1017B000C0910601D09107010E94C10B8883C0919E
:1017C0000601D091070148E050E06BE372E0CE01E2
:1017D0000E944A28892B59F088E0FE01ABE3B2E071
:1017E00001900D928A95E1F7CE010E94CF1DDF9105
:1017F000CF910895CF93DF93C0910401D09105015B
:101800000E94C10B8983C0910401D091050140E27F
:1018100050E06BE172E0CE010E944A28892B59F01A
:1018200080E2FE01ABE1B2E001900D928A95E1F712
:10183000CE010E94DA1DDF91CF91089580912001A1
:10184000882339F08091130387FF03C00E94FA0BAD
:1018500008950E94D60B089508950E942C0C0895B7
:101860009091140392FF11C098E0899F9001112478
:10187000622B609343020E94810780914302869508
:10188000869586950E942D0C08950E9481070895E3
:101890001092430280E00E942D0C08959091430223
:1018A0008095892380934302282F277021110DC032
:1018B000891759F09091140392FF07C08695869579
:1018C00086950E9491070E94480C089590911403F8
:1018D00092FB222720F9281769F080FB92F9909358
:1018E000140380911303909114030E94AE0C82E0C4
:1018F0000E944E0C08958091140382FB882780F982
:1019000091E089270E94660C089581E00E94660C90
:10191000089580E00E94660C08956FEF7FEF80E0ED
:1019200090E00E94A228089580E090E00E946E2836
:101930009C0181E0263E3E4F09F080E0089582E060
:1019400090E00E946028089583E090E00E94602863
:10195000089584E090E00E946E280895BC0184E020
:1019600090E00E94A2280895AB01BC018FE090E0B6
:101970000E9496280895AB01BC0183E190E00E948B
:101980009628089560E070E0CB010E94BB0C08959A
:1019900060E070E0CB010E94B40C0E94C20C08957C
:1019A000A8E0B0E0E6EDFCE00C94842766EE7EEF64
:1019B00080E090E00E94A22860E082E090E00E9437
:1019C000842881E090E09093D9018093D80161E070
:1019D00083E090E00E94842860E074E184E090E07D
:1019E0000E94A22860E086E090E00E9484286FEFC9
:1019F00087E090E00E94842840E050E0BA0188E04F
:101A000090E00E94962860E084E290E00E948428A2
:101A100060E087E190E00E94842860E08CE090E044
:101A20000E94842860E08DE090E00E948428198262
:101A30001A821B821C821D821E821F82188648E029
:101A400050E068E170E0CE0101960E94742840E009
:101A500050E0BA0180E290E00E9496280E94C80CF3
:101A60002896E2E00C94A0270E94D00C0895682FDD
:101A70008EE090E00E9484280895A6E0B0E0E3E4C0
:101A8000FDE00C9482270E9409208C018091700255
:101A9000909171028017910779F019821A820E9441
:101AA0000920BC0149815A8180E090E00E94B7037F
:101AB00010937102009370022696E4E00C949E2726
:101AC0000E941520609380027093810280938202AD
:101AD0009093830260937C0270937D0280937E02D8
:101AE00090937F0208950E94152060938002709366
:101AF00081028093820290938302609378027093B4
:101B0000790280937A0290937B0208950895089554
:101B10000E94860D089508950E948B0D089589E412
:101B200090E10E94DF110E94870D0E94880D0895A8
:101B300081E008950E94980D08950E94980D0895DF
:101B4000089508950E94A00D0E94A10D08950E947D
:101B500068100E948B0308950E9400200E94411883
:101B60000E9430110E94A70D0E94D1160E948C0D78
:101B70000895A6E0B0E0EFEBFDE00C947B270E9417
:101B80009A0D811111C00E943D0D0E94A2170E9462
:101B9000C71881110E94730D0E941D1C0E949E0394
:101BA0002696EBE00C9497270E94461182E7A82E18
:101BB00082E0B82E750110E0F70101917F01812FBD
:101BC0000E948E101F5F163009F443C00817A1F35E
:101BD0008091840281FD0E9494100E949D0DC82E68
:101BE00000E099249394802F0E948E10182FF50105
:101BF00091915F01891739F1D82ED926F12CEE2465
:101C0000E3948D2D8E218823B1F0CC20A1F0F982B0
:101C10000A830E9409209C838B839D8291E0812FFF
:101C20008E21811101C090E049815A816B817C81B4
:101C30008D810E94B703F394EE0CF4E0FF12E1CF24
:101C4000F501319710830F5F063069F60E94600D31
:101C50009CCF0813BDCF97CF1F93CF93DF930E94E4
:101C6000560FEC01811522E5920708F053C081154B
:101C700040E5940708F0DDC0803E9105F8F48D3C06
:101C8000910508F0AEC0883A910580F4853A910537
:101C900008F099C08130910521F00497813A9105AF
:101CA00050F4CE01DF91CF911F910895885A910988
:101CB0004B9708F48BC0C0E0D0E0F3CF811550E41F
:101CC0009507F8F4C11580E2D80708F0CBC0C83EEC
:101CD000D10538F3CE019A9581159F4160F78D2F7C
:101CE0000E94FA0F182FCE0199270E94560F212F1C
:101CF00030E0322F2227E901CC27DF71C82BD92B06
:101D0000D0CF99270E94560FCC27DF70C82BD92B34
:101D1000D06AC7CF803842E59407C8F5803652E5CF
:101D2000950708F067C0C03482E5D807B0F08C2F63
:101D300086958695877020E2829FC0011124C3702A
:101D400021E030E0A90102C0440F551FCA95E2F717
:101D5000EA01C82BD92BDC68A4CFC03252E5D507E5
:101D600008F041C08C2F8695869520E2829FC001A5
:101D70001124C37021E030E0A90102C0440F551FB7
:101D8000CA95E2F7EA01C82BD92BDD688ACF803CDF
:101D900052E5950760F48F71C03AD24508F03FC014
:101DA00090E0982F8827EC01C46FD06A7ACF805CCE
:101DB0009245809708F07FCFDC2FCC27CC27DF71AE
:101DC000C06FD06A6ECFA497D0646BCFC85AD0E0F2
:101DD000CC0FDD1FC95ADE4F0990D881C02DD464C5
:101DE00060CFD0655ECFCF71D0E0DC2FCC27C16F44
:101DF000D06A57CF86958695877020E2829FC00172
:101E00001124C37021E030E0A90102C0440F551F26
:101E1000CA95E2F7EA01C82BD92BDA6842CF0E94B3
:101E2000FA0FC82FD0E0DC2FCC27CC27DF71D0628F
:101E300038CF8F710E94FA0F65E0D695C7956A95E5
:101E4000E1F7CF70D0E0DC2FCC27282F30E084FFE3
:101E500005C054E0220F331F5A95E1F7C22BD32B54
:101E6000D0691FCF8D2F8F710E94FA0F182FCE01CE
:101E700099270E94560F212F30E0322F2227222748
:101E80003F71282B392BE901D2CF462F672F7630AF
:101E900028F4443018F40E947D02089580E090E018
:101EA00008950E94450F0E942C0E0895803E9105D2
:101EB000D1F1C8F48133910509F47FC048F4893227
:101EC000910509F46FC08A32910509F47DC0089527
:101ED00089339105E1F082389105C9F08533910588
:101EE00009F45BC00895843E9105D1F148F4823E27
:101EF000910531F1833E910541F181EE90E0089525
:101F0000863E9105C1F1873E9105E1F1089520914A
:101F100013032370211165C02091140323FF14C003
:101F200089E290E008952091130320FD43C0309191
:101F3000140330FF09C024FF4EC080E090E00895F4
:101F40002091130322FDF7CF08952091130322FD62
:101F500045C03091140330FD44C024FFF5CFEDCFD0
:101F60002091140321FFF0CF8091130384FDE5CF6E
:101F700087EE90E008952091130323FFE5CF24FD21
:101F8000DCCFF6CF2091130323FD2EC03091140334
:101F900031FFE3CF84EE90E008952091130325FFF5
:101FA000D3CFBECF2091130325FD21C02091140370
:101FB00023FFCACF89E390E008952091130326FF01
:101FC000C3CF8AE290E008952091130326FFBCCF8F
:101FD00081E390E0089583EE90E0089582EE90E032
:101FE000089580EE90E0089586EE90E0089585E3F0
:101FF00090E0AACF9091130392FF10C041E0282FE8
:102000002471243009F040E031E0282F2871283075
:1020100009F030E0431711F02CE0822793FF10C045
:1020200041E0282F2471243109F040E031E0282FCD
:102030002871283109F030E0431711F02CE0822795
:102040003091140330FF10C051E0282F217121304E
:1020500009F050E041E0282F2871283009F040E0D5
:10206000541711F029E0822731FF10C041E0282FDA
:102070002171213109F040E031E0282F2871283109
:1020800009F030E0431711F029E0822794FD877EA4
:10209000089580E008950E948D0C08950E944611D5
:1020A0002FEF86E791E0215080409040E1F700C09B
:1020B00000000E94461180E00E948E1080FF04C044
:1020C0000E944B100E94652008950E944E100895B2
:1020D0000E94940C811102C00E94340D0E949F0C3A
:1020E000809384020E94A90C90931403809313039D
:1020F0000E9465100E94A40C90E00E944507809108
:10210000D6019091D7010E946607089508950E9414
:102110008610089508950E948A100895E82FF0E02F
:10212000E55EFC4F80810895089580EA8A95F1F775
:10213000089500C008950E9495100895F894E82F1E
:10214000E295EF70F0E041A18F7021E030E0B9013D
:1021500002C0660F771F8A95E2F7CB01962F909504
:10216000942391A392A1892B82A378940895CF936D
:10217000DF93C1E9D1E089918F3F11F00E949E1059
:1021800081E0C739D807B9F781E90E949E1080E93C
:102190000E949E1084E90E949E1086E60E949E1076
:1021A000DF91CF910895A0E0B0E0E9EDF0E10C946B
:1021B0007E27EC01D62E062F10E0C8018F569E4FC9
:1021C0007C01FC0180818F3F09F445C0F894E82F21
:1021D000E295EF70F0E091A18F7021E030E001C056
:1021E000220F8A95EAF7892F822B81A382A120955D
:1021F000282322A378940E949910EDE8F1E091E061
:10220000C12C81918F3F81F0A82FA295AF70A05E65
:10221000B0E02C9130E08F7002C0359527958A95FB
:10222000E2F72170892F211180E0C82A990F81E0FF
:10223000E139F80731F7F70180818F3F11F00E94F3
:102240009E1061E0C11001C060E08D2D0E949B10C6
:10225000C00FD11FC882CDB7DEB7E8E00C949A2733
:102260000E94B71086E0EBE1F3E0DF01982F1D92AA
:102270009A95E9F7E5E1F3E0DF011D928A95E9F728
:1022800086E00E9484110E9487100895A6E0B0E0C5
:10229000ECE4F1E10C9481271A821982FE01339655
:1022A00084E0DF011D928A95E9F7F12C8E010F5F22
:1022B0001F4F6F2DC8010E94D310F394B6E0FB129C
:1022C000F8CF46E050E0B80185E193E00E944A284B
:1022D00021E0892B81F420E046E06BE173E085E1A9
:1022E00093E00E948511182F0E948B10812F269653
:1022F000E5E00C949D2786E0F801A5E1B3E00190AC
:102300000D928A95E1F7E8CF0895A0E0B0E0EBE800
:10231000F1E10C947E27D82EE92EF62ED72F042F2C
:10232000C22F222379F081E0809387020E94092046
:10233000909386028093850280E0CDB7DEB7E8E017
:102340000C949A27C0908702CC20B1F3809185022B
:10235000909186020E943220059770F310E0A80148
:102360006D2D7E2D8F2D9D2F0E944A28892B41F0A7
:10237000A8016D2D7E2D8F2D9D2F0E945728CC2DCD
:10238000109287028C2FD9CF0E94E4210E94AC0DBD
:102390000E94F12108950E94F6210E94B90D0E9429
:1023A000102208950E94A21F0E94CA210E948F0D30
:1023B0000E94C4110E94CB110E94A20DFBCF9093EA
:1023C000C3018093C2010895A0E0B0E0EAEEF1E11C
:1023D0000C947C27E82F71110DC0442321F0F0E00C
:1023E000E751FE4F8491682F782FCDB7DEB7EAE032
:1023F0000C949827262F30E0C72FD0E0F0E044233C
:1024000021F0E751FE4FE491F0E086E0829F7001F9
:10241000839FF00C11240FEF10E0C701B8010E9458
:102420002427AB01220F331F65E5649FC001659F20
:10243000900D1124281B390BC22ECC0CC20EC801E2
:102440008C1B9D0B8E9F90018F9F300D9E9F300D9A
:102450001124832FCC9EB001CD9E700D1124672FC7
:1024600077275801A61AB70AAE9ED001AF9EB00DCD
:10247000BE9EB00D11247B2F5801AC18B108650128
:10248000CC9E5001CD9EB00CDC9EB00C1124AB2C28
:10249000BB240A191B090E9FE0010F9FD00D1E9F40
:1024A000D00D11246E2F43305105C9F09CEFE91671
:1024B00093E0F90650F44130510509F496CF4230CB
:1024C000510589F07E2F6D2F90CF4430510571F06A
:1024D00046305105B9F3632F8B2F7E2F86CF6B2F9C
:1024E000732F8E2F82CF732F8D2F7FCF7D2F632F52
:1024F000F8CF41E00E94E411089508950E947912F6
:102500000895CF93DF93982F762F842FE901692FB9
:102510000E947E12798368838A83DF91CF91089528
:1025200080912103843028F4837084608093210398
:1025300008958835E8F383708465F8CF4F925F92F1
:102540006F927F928F929F92AF92BF92CF92DF92C3
:10255000EF92FF920F9388E090E00E9468282B0191
:102560003C0184E290E00E946028282F30E040E0A7
:1025700050E060E070E080E090E000E20E94AB2775
:1025800053014201C12CD12C7601242939294A2931
:102590005B296C297D298E299F290F91FF90EF904F
:1025A000DF90CF90BF90AF909F908F907F906F9073
:1025B0005F904F900895A0E0B0E0E1EEF2E10C945E
:1025C0007E278901D42FC52F6B017C010E949012B8
:1025D000A8016D2F7C2F88E090E00E94962898013A
:1025E0004D2F5C2FB601C70100E20E94C627622F63
:1025F00084E290E00E948428CDB7DEB7E8E00C9436
:102600009A27E1E2F3E085E080838AE681838FEF19
:10261000828383831482758125E03AE64FEF5FEF72
:1026200060E0868197810E94DB12089580912103EA
:1026300080FF03C086958695089580E00895909167
:102640002503933018F49F5F90932503882391F01E
:1026500020912103309122034091230350912403C0
:1026600060912503709126038091270390912803A0
:102670000E94DB12089581E00E941F13089590913B
:102680002503992319F0915090932503882391F005
:102690002091210330912203409123035091240380
:1026A0006091250370912603809127039091280360
:1026B0000E94DB12089581E00E943F13089570E0AC
:1026C0000E9442190895609109018091210380FFC1
:1026D0000DC02091080130E0C901880F991F820FB9
:1026E000931F875D9C4F0E945F13089580910A019C
:1026F00090910B01282F30E0F901EE0FFF1FE20F40
:10270000F31FE75DFC4F891720F7118210821282B8
:102710008F5F3396F8CF9091210390FF11C0909175
:102720000A0150910B01292F30E0F901EE0FFF1F34
:10273000E20FF31FE75DFC4F951718F00E9463133B
:1027400008958183608342839F5F3396F5CFA3E032
:10275000B0E0EDEAF3E10C9484279091210390FF1F
:102760000AC09E012F5F3F4F0E9481124B816981F9
:102770008A810E948B132396E2E00C94A027CF93CA
:10278000DF93EC01EC81F0E0E751FF4F4491E1E28F
:10279000F3E0628181810E94A7138C818F5F8C831B
:1027A000DF91CF910895CF93DF93EC01E1E2F3E065
:1027B000438162818C810E94A7138C818F5F8C83FF
:1027C000DF91CF910895A3E0B0E0E9EEF3E10C943E
:1027D0008027082FF62E142FE22E8091210380FFF0
:1027E0002EC0E82FE695E695F0E0E956FE4F908181
:1027F0009093E7028C7F843031F59E012F5F3F4F2D
:10280000802F0E9481124B8169818A810E948B13E3
:1028100000932203F092230310932403EE2079F017
:10282000209121036091250370912603302F4F2DB5
:10283000512F80912703909128030E94DB12239649
:10284000E6E00C949C27923019F410912403E0CF19
:102850009630F1F600912203DBCF282FE1E2F3E07E
:102860008181438162818E5F0E94E313089581E03C
:102870000E942D140895282FE1E2F3E08181438125
:10288000628182500E94E313089581E00E943B140C
:102890000895282FE1E2F3E0628131E1630F08F44B
:1028A0006FEF438181810E94E313089581E00E94CC
:1028B00049140895282FE1E2F3E0628131E1631BBE
:1028C00008F460E0438181810E94E313089581E070
:1028D0000E945A140895282FE1E2F3E0438131E188
:1028E000430F08F44FEF628181810E94E313089542
:1028F00081E00E946B140895282FE1E2F3E0438108
:1029000031E1431B08F440E0628181810E94E313BE
:10291000089581E00E947C14089520E00E94E31352
:102920000895A0E0B0E0E7E9F4E10C947D27FC0114
:10293000828101E080FD0FEF10E080910C011817FB
:1029400098F00E94631380918802013009F051C011
:10295000811102C080910C01815080938802CDB713
:10296000DEB7E9E00C94992780910A01C12ED12CA1
:102970008C0D9D2D911DEC01CC0FDD1FC80FD91FB3
:10298000C75DDC4F198218821A8234E0E32EF12CE5
:10299000B12C809188028B0D82312CF161E10E9473
:1029A0001627892F082E000C990BC816D90691F40A
:1029B000809124038E9DA0018F9D500D112455956B
:1029C0004795559547959E01609123038091220379
:1029D0000E948112B00EF1E0EF1AF108E114F10447
:1029E000C1F61F5FAACF87FFDDCF90910C01890F41
:1029F000D9CF90E0019660910C0170E00E943827D9
:102A0000ACCF0F931F93CF93DF93EC0100E010E066
:102A100040910C01842F90E0081719076CF00E9478
:102A200063138C8190E00196817099278C83DF91EC
:102A3000CF911F910F91089580910A01800F912FDE
:102A4000911D9C01220F331F280F391F275D3C4F1A
:102A50009C816091230380912203469550E00417E6
:102A600015074CF4992349F0409124030E948112E8
:102A70000F5F1F4FCDCF9923B9F340E0F7CFA0E010
:102A8000B0E0E5E4F5E10C947627FC016280448037
:102A900081E08483E9EEF0E07490E8E6F1E0E4910F
:102AA000C0912403C695C158D0E0CC0FDD1FCD2FB7
:102AB000DD27812C75E0972EAA24AA94B12C5524E9
:102AC0005A94E719EE2EF12C80910C01881638F0FB
:102AD0000E946313CDB7DEB7E0E10C949227C82CB7
:102AE000D12C82E0861568F09C9CF0019D9CF00D35
:102AF0001124E757FD4F80912203808380912303A7
:102B00008183411023C09C9CF0019D9CF00D1124F9
:102B1000E757FD4F1382128280910A018C0D9D2D83
:102B2000911D9C01220F331F280F391F275D3C4F39
:102B30009C9CF0019D9CF00D1124E757FD4F4281B4
:102B4000618180810E9481128394BECF9C9C800110
:102B50009D9C100D112407571D4FF8018381882378
:102B6000F1F081508383589EC0011124648170E08C
:102B70000E942427FB01FF27E751FF4F8491E82F94
:102B8000E7195E9EC0011124B7010E94242780919D
:102B90002403689FB0011124F8017283BDCF0E9405
:102BA0002D28B5010E9438278C179D070CF0B4CF53
:102BB000F2E0F61598F40E942D28B5010E943827FE
:102BC000F80180830E942D28209123032695622FEF
:102BD00070E00E943827280FF80121839C9CF001A7
:102BE0009D9CF00D1124E757FD4F12828091240324
:102BF000893C58F088EC9C9CF0019D9CF00D1124C0
:102C0000E757FD4F8483838387CF8431A0F784E126
:102C1000F2CFE1E2F3E020812E7F208331814281F7
:102C2000538164817581868197810E94DB121092A5
:102C3000E8020E9463130895E1E2F3E080818E7F51
:102C400080831092E8020E94631308951092E802B4
:102C50008091E50281110AC081E08093E5028091B4
:102C6000210381708093E4020E941C1608956091F4
:102C700021036695669570E041E050E08DE091E0BB
:102C80000E943D28892B19F481E08093E8020E947C
:102C900009209093DF028093DE0208959091210332
:102CA00090FF3AC08823C9F18631C8F58F73282F69
:102CB000220F220F809121038370282B2093210360
:102CC000662381F030912203409123035091240325
:102CD000609125037091260380912703909128032A
:102CE0000E94DB12609121036695669570E041E0D9
:102CF00050E08DE091E00E943D28892B91F01092E8
:102D0000E80281E08093E102409124036091230373
:102D1000809122030E948D14089581E0C8CF85E13F
:102D2000C6CF0E943716EDCF682F8091210386957C
:102D300086958F5F863108F081E00E944E160895D7
:102D400081E00E9494160895682F90912103969532
:102D500096958FEF890F913009F485E10E944E1608
:102D6000089581E00E94A416089561E00E944E1625
:102D70000895E1E2F3E08081816080838695869505
:102D80000E94B51608958091210380FF03C00E9420
:102D9000091608950E94B916089560E00E944E1623
:102DA00008958091E60281113FC00E94940C811128
:102DB00004C00E94340D0E9401130E949E122093B1
:102DC0002103309322034093230350932403609301
:102DD00025037093260380932703909328032430C0
:102DE000A0F40E9401130E949E12209321033093AD
:102DF000220340932303509324036093250370938D
:102E0000260380932703909328030E949012109228
:102E1000E8028091210380FF04C0869586950E9478
:102E2000CD1681E08093E6020895E1E2F3E080812F
:102E300081608083869586950E94CD1608951092B4
:102E4000E5028091E40281110E9415170E94371655
:102E500008950F931F93CF93DF938091E802882307
:102E6000C1F19091E702E0912103E695E695E91B17
:102E7000E093E002923091F5F0E0EB51FF4FE491E6
:102E8000CE2FD0E00FEB13E18091E102882361F0B7
:102E90001092E1020E9409209093DF028093DE02EB
:102EA0001092E3021092E2020E9409202091DE02B9
:102EB0003091DF02821B930B8F3F9F4750F42C0F02
:102EC0003D1F3093DF022093DE028EED92E0F80189
:102ED0000995DF91CF911F910F910895963049F494
:102EE000F0E0EE51FF4FE491CE2FD0E003ED13E17F
:102EF000CBCF993051F4E695F0E0E152FF4FE491E9
:102F0000CE2FD0E001E914E1BFCFC4EFD1E001E062
:102F100015E19F3009F4B8CFC0EDD7E00DE712E11D
:102F2000903109F0B1CF8E2F63E00E940A27E92F7C
:102F3000F0E0E452FF4FE491CE2FD0E00FE315E133
:102F4000A3CF08950E9429170895FA01882311F04C
:102F500009950895FB01FCCFCF93DF93C82FD62F9F
:102F60000E9416138C1748F00E9416138D1728F430
:102F70000E94A016DF91CF9108958C2F0E94B51664
:102F8000F9CF1F93CF93DF93EC01FB011581111152
:102F90005BC00E94640B8272FE01E052F847E5318B
:102FA000F10508F051C0E95FF64D0C946E270E94C0
:102FB000C316812FDF91CF911F91089541EB56E108
:102FC00060EA76E10E94A517F4CF40EA56E161EB92
:102FD00076E1F8CF45E454E167E374E1F3CF47E3EA
:102FE00054E165E474E1EECF47E654E166E574E14F
:102FF000E9CF46E554E167E674E1E4CF49E854E1FE
:1030000068E774E1DFCF48E754E169E874E1DACFBB
:103010004BE553E16BE373E1D5CF4BE353E16BE554
:1030200073E1D0CF81E00E94B516C3CF65E082E0A6
:103030000E94AC17BECF68E086E0FACF6EE089E070
:10304000F7CF65E180E1F4CF11E0B3CF8FE891E0F5
:103050000197F1F700C000000895CF93DF93D62FBA
:103060000E945302C82F882341F06AE070E089EA89
:10307000D11101C08AEA0E9475048C2FDF91CF9193
:103080000895EF92FF920F931F93CF93DF9382E007
:103090008093EB028FEBE82E81E0F82E0DEB11E030
:1030A000A801D70121E030E08D91E82FE295EF7083
:1030B00061E26E0F70E0EB01F8818F70E90102C0F0
:1030C000CC0FDD1F8A95E2F7CE019C2F90959F23B0
:1030D000EB019883EE5DF0E09081892B8083FA010B
:1030E0008191AF01E82FE295EF7061E26E0F70E021
:1030F000EB01F8818F70E90102C0CC0FDD1F8A95CA
:10310000E2F7CE019C2F90959F23EB019883EE5D13
:10311000F0E09081892B8083D1E0A13CBD0721F6AE
:103120000E9426184091EB02AEEEB2E0EFEBF1E028
:103130008E2F8E19841728F0CDB7DEB7E6E00C94F9
:103140009C275191852F82958F70805E90E0EC01D5
:103150002881E80139918E01832F82958F70805EDE
:1031600090E0EC01888190E03F7002C095958795D2
:103170003A95E2F78170880F30E05F7002C03595B4
:1031800027955A95E2F72170822B8D93D1CFA0E03D
:10319000B0E0EDECF8E10C947E27F12CE12C84E01A
:1031A000C82ED12C8091EB02F81630F08E2DCDB7C1
:1031B000DEB7E8E00C949A270F2D10E0F801E154F7
:1031C000FE4F4081E42FE295EF70E05EF0E0208159
:1031D000F801E354FE4F3081E32FE295EF70E05E9B
:1031E000F0E0808190E03F7002C0959587953A9518
:1031F000E2F78170880F30E04F7002C03595279557
:103200004A95E2F72170822BD801A251BD4FEC9173
:103210009E2F93709817A1F1EE0FEE0FE82BEC9311
:10322000EF70F0E0E355FE4FE801C451DD4F8081BF
:103230009881890F888320E084305CF0F801E751A1
:10324000FD4F80818F5F808360E08F2D0E942D185D
:1032500021E088818D3F5CF4F801E751FD4F8081CA
:103260008150808361E08F2D0E942D1821E088819C
:10327000082E000C990BB6010E9438278883E22A99
:10328000F39490CF9C01AB01869A61B36F7B71B3CD
:103290007064EFB7F894CA01880F991F840F951FC7
:1032A000820F931F8217930741F4EFBF8FE594E0DD
:1032B0000197F1F700C000000895D9014D919D01DB
:1032C00058E071BB000000C047FF61BB440F000025
:1032D00000C000C000C061BB00C05A9591F7E2CFAA
:1032E000CF93DF93EB0186319C4719F50E94640B65
:1032F0009D819923A1F08A7A91E0811101C090E02B
:103300009093F002882349F085E30E94F31E0E9407
:103310001E0C80E0DF91CF91089589E2F6CF809175
:10332000F002882321F085E30E940A1FF0CF89E292
:10333000FBCF81E0EFCFCF93DF93EC01FB018581E1
:10334000882309F4D2C09E0130572332310508F09A
:10335000B2C00E94A90C9093140380931303FE0142
:10336000E150F047E232F10520F4E45EF64D0C94B2
:103370006E278091130381608093130393C0809123
:1033800014038860809314038DC0809113038260BE
:10339000F3CF809113038460EFCF80911303886093
:1033A000EBCF809114038160EDCF80911403826094
:1033B000E9CF809113038061DFCF80911303806296
:1033C000DBCF809113038064D7CF0E94F6068091F3
:1033D00013038068D1CF809113038C60CDCF80918F
:1033E00014038360CFCF809113038E7FC5CF80916C
:1033F0001403877FC7CF809113038D7FBDCF80914A
:1034000013038B7FB9CF80911303877FB5CF809152
:1034100014038E7FB7CF809114038D7FB3CF80913B
:1034200013038F7EA9CF809113038F7DA5CF809149
:1034300013038F7BA1CF0E94F606809113038F7731
:103440009BCF80911303837F97CF809114038C7F50
:1034500099CF8091130382FB992790F921E092275D
:1034600090FB82F990FB83F987CF80911403982F0A
:10347000909591708E7F892B90FB81F983CF9091ED
:103480001303892F8F7B96FF806476CF0E94F60608
:1034900090911303892F97FB87F980586DCF81E0B6
:1034A0000E94370D80911303909114030E94AE0C7B
:1034B0000E94F60680E0DF91CF91089580E0F0CF82
:1034C00090911303892F8F7E94FF806155CF909147
:1034D0001303892F8E7F90FF81604ECF909114034C
:1034E000892F877F93FF88604DCF81E0E4CF282F1D
:1034F00035EB2303C001112497FF04C080589109C4
:10350000892F089580589F4FFBCF8091F70280FF4D
:103510000DC06091130170E0660F771F6038710570
:10352000C0F561157105B9F1862F089581FF07C0B7
:103530006091130184E0689FB0011124EFCF82FFF6
:1035400004C06091130188E0F6CF8091F6028823D1
:10355000E9F0909112016091130170E0891730F049
:1035600093E0660F771F9A95E1F7D8CF869F900179
:10357000879F300D112483E0220F331F8A95E1F7D6
:10358000692F70E0C9010E943827C8CF68E070E059
:10359000CBCF8FE7089581E008958091F70280FFF7
:1035A0000CC060910F0170E07595679575956795F2
:1035B0006115710561F1862F089581FF06C0609144
:1035C0000F0170E075956795F3CF60910F0170E082
:1035D00082FD15C02091F5022223B1F090910E01D9
:1035E00060910F0170E0291750F4269FA001279FDA
:1035F000500D1124692F70E0CA010E9438276038ED
:103600007105B0F28FE7089561E070E0D4CF81E0FA
:1036100008959091FA022091FB02922B2091FD02D5
:10362000922B2091FC02922B992331F098E09093F9
:10363000F60291E09093F5028D3C31F40E94851AD8
:1036400081958093FB020895E2E3E80FE231B0F543
:10365000F0E0E25CF64D0C946E270E94851AF1CFE3
:103660000E94851A81958093FA0208950E94851A16
:10367000FACF0E94CD1A8093FC0208950E94CD1AC1
:103680008195F9CF0E94CD1A81958093FD0208950E
:103690000E94CD1AFACF815D990B21E030E001C084
:1036A000220F8A95EAF78091F902822B8093F90222
:1036B00008958091F70281608093F70208958091C8
:1036C000F7028260F9CF8091F7028460F5CF4091D4
:1036D000FA028D3C59F48091FB0287FF0DC01092D5
:1036E000FB02442359F41092F60208C08E3C81F488
:1036F0008091FB0218169CF3442381F08091FC0218
:103700009091FD02892B811159C01092F502089504
:103710008F3C41F447FFF0CF1092FA028091FB02F8
:103720008823E0CF803D19F41416B4F3E5CF9091CF
:10373000FC02893D29F41916FCF61092FC02DCCF3C
:103740008A3D19F497FFD8CFF8CF9091FD028B3DB9
:1037500029F497FFD1CF1092FD02CECF8C3D19F402
:103760001916CCF3C9CF9FE2980F983090F4815D81
:10377000990B21E030E0B90102C0660F771F8A95EE
:10378000E2F7CB0180959091F90289238093F902A9
:10379000B3CF8D3D31F48091F7028E7F8093F70295
:1037A000ABCF8E3D21F48091F7028D7FF7CF8F3D17
:1037B00009F0A2CF8091F7028B7FF0CF08950E948D
:1037C00009202091FA023091FB02232B222321F0C1
:1037D0008093F3029093F4022091FC023091FD0259
:1037E000232B222321F08093F1029093F20288EFA1
:1037F00092E00E94E91D089586E0E8EFF2E0DF0123
:103800001D928A95E9F71092F6021092F502109235
:10381000F7020895FC01828181110DC0838181111D
:103820000AC08481811107C081E09581911101C096
:1038300080E08170089581E0FCCFA6E0B0E0E3E293
:10384000FCE10C94812786E0E8EFF2E09E012F5F17
:103850003F4FD90101900D928A95E1F71092FA023B
:103860001092FB021092FC021092FD028B819C814F
:10387000892B8901882391F08091F3029091F402C1
:103880000E9432209C018091F6028823C9F1409168
:10389000140150E04217530708F43FC08D819E8108
:1038A000892B882399F08091F1029091F2020E9475
:1038B00032209C018091F502882309F467C0409171
:1038C000100150E04217530708F46EC0B80188EFAA
:1038D00092E00E943B1F811105C088EF92E00E9498
:1038E0000A1C81110E94DF1B86E0F801A8EFB2E0FC
:1038F00001900D928A95E1F72696E5E00C949D27BC
:10390000409115019AE0499FA001112442175307E5
:1039100028F68F5F8093F60202C08F3FD1F7FB80BD
:10392000FF2059F00E94851A91E01F140CF09FEFC0
:10393000899F802D11248093FA02FC80FF2059F08A
:103940000E94851A91E01F140CF09FEF899F802D33
:1039500011248093FB028091FA02882309F49ECF00
:10396000F090FB02FF2009F499CF0E94771A811191
:1039700001C081E08093FA028F2D0E94771A88237C
:1039800019F08093FB028ACF81E0FBCF40911101B7
:103990009AE0499FA00111244217530708F096CFDF
:1039A0008F5F8093F50202C08F3FD1F7FD80FF202B
:1039B00059F00E94CD1A91E01F140CF09FEF899FDF
:1039C000802D11248093FC02FE80FF2059F00E947C
:1039D000CD1A91E01F140CF09FEF899F802D1124C8
:1039E0008093FD028091FC02882309F46FCFF09050
:1039F000FD02FF2009F46ACF0E94771A811101C0ED
:103A000081E08093FC028F2D0E94771A882319F0A1
:103A10008093FD025BCF81E0FBCF0F931F93CF9389
:103A2000DF93C42FD22FFC0185818823C9F04093F6
:103A300000030E9409209093FF028093FE0280E21F
:103A40008C0F883040F4C77081E001C0880FCA95A0
:103A5000EAF70E949604DF91CF911F910F9108958C
:103A60001091000314133CC08091FE029091FF025C
:103A70000E943220883C910598F5C0E2CD0F1D17B9
:103A800041F180E2810F883040F4177081E001C07D
:103A9000880F1A95EAF70E949D04C83020F0802F05
:103AA0000E948D04D8CF91E08D2F877001C0990FAF
:103AB0008A95EAF7892F0E949604802F0E948D0430
:103AC000D77081E001C0880FDA95EAF70E949D0463
:103AD000C2CF802F0E948D04C83008F0BCCFF0CF39
:103AE00080E28C0F883008F0B6CFC77081E001C04B
:103AF000880FCA95EAF7EACF0F93FC01CB01E85192
:103B0000FC47E730F10590F5E05BF64D0C946E272D
:103B100006E221EE41EE6AE17CE70E940D1D80E0A5
:103B20000F91089507E225EE45EE6BE17CE7F5CFB6
:103B300006E221EE40EE68E17CE7EFCF07E225EEFA
:103B400044EE69E17CE7E9CF06E221EE42EE6CE16A
:103B50007CE7E3CF07E225EE46EE6DE17CE7DDCFC3
:103B600008E221E045EE6EE17CE7D7CFFB018581DD
:103B700081111092000381E0D3CF909306038093CC
:103B800005030895E0910503F0910603309729F0AD
:103B90000190F081E02D0995089580E00895E0916D
:103BA0000503F0910603309721F00280F381E02DA8
:103BB00009950895DC01E0910503F0910603309723
:103BC00039F086E08C930480F581E02DCD010995D4
:103BD0000895DC01E0910503F0910603309739F078
:103BE00082E08C930680F781E02DCD010995089540
:103BF000A3E0B0E0EEEFFDE10C9484279C018091FE
:103C000003039091040382179307A1F030930403F8
:103C100020930303E0910503F0910603309751F0E0
:103C200083E089833B832A830084F185E02DCE01E4
:103C3000019609952396E2E00C94A027A3E0B0E05A
:103C4000E4E2FEE10C9484279C01809101039091B1
:103C5000020382179307A1F030930203209301031C
:103C6000E0910503F0910603309751F084E08983D9
:103C70003B832A830084F185E02DCE0101960995CE
:103C80002396E2E00C94A0272091060130910701D1
:103C90002E5F3F4F809120018823A9F0809113036C
:103CA00087FF11C020910401309105012E5F3F4F25
:103CB0009DE180E0F90140812F5F3F4F41118F5F0F
:103CC0009150C0F7089595E0F4CF882321F19091A9
:103CD0002001992311F19091130397FF1EC0982F93
:103CE000969596959695803FB0F4E0910401F091F9
:103CF0000501E90FF11D228130E0877041E050E0BD
:103D0000BA0102C0660F771F8A95E2F72623372390
:103D100081E0232B91F480E00895209106013091F9
:103D20000701F9013296285F3F4F9191981721F0D2
:103D3000E217F307D1F7EFCF81E008959C01FC0172
:103D400032968FEF90E04191461751F08F3F19F472
:103D5000411101C0892F9F5F9630A9F78F3F09F469
:103D60000895280F311D87FD3A95F9016283089562
:103D70009C01FC013296285F3F4F8191861303C05E
:103D8000DF0111971C92E217F307B9F70895FC01C0
:103D9000862F869586958695603F60F4E80FF11D25
:103DA000677021E030E001C0220F6A95EAF7828156
:103DB000822B82830895FC01862F869586958695B1
:103DC000603F80F4E80FF11D677081E090E09C0196
:103DD00002C0220F331F6A95E2F7B9016095828114
:103DE000682362830895682F80912001882359F009
:103DF0008091130387FF07C0809104019091050112
:103E00000E94C71E089580910601909107010E94AB
:103E10009E1E0895682F80912001882359F080917B
:103E2000130387FF07C080910401909105010E9450
:103E3000DB1E089580910601909107010E94B81E33
:103E4000089580912001882379F08091130387FFE2
:103E50000BC0E0910401F091050132968EE1DF0183
:103E60001D928A95E9F70895E0910601F091070106
:103E7000329686E0F4CFDC01FB0111969C911197FC
:103E80008181981322C012968C911297882319F081
:103E9000928189131AC013968C911397882319F075
:103EA0009381891312C015968C911597882319F068
:103EB000958189130AC014969C91992321F081E081
:103EC0002481291303C080E001C081E0817008953E
:103ED00008950E94681F08958F5F809307030E94D2
:103EE000691F089583E0809307030E94691F089566
:103EF0000E946C1F089581E0809307030E94691F50
:103F000008950E947B1F0895089508950E94851FBB
:103F10000895089508950E94841F0895CF930E94E4
:103F2000891F0E9446110E948A1FC0E08C2F0E94A8
:103F30008E10811105C0CF5FC630C1F7CF910895B3
:103F400081E0FCCF85B7806885BF85B7806885BF75
:103F500008951F921FB61F9211248F939F93AF93C2
:103F6000BF9380910803811113C080915C039091ED
:103F70005D03A0915E03B0915F034196A11DB11D49
:103F800080935C0390935D03A0935E03B0935F0303
:103F9000BF91AF919F918F911F901FBE1F90189559
:103FA00080916403843031F10E946A031092080307
:103FB00088E190E020E40FB6F894A8958093600023
:103FC0000FBE2093600083B7817F846083BF83B777
:103FD000816083BF7894889583B78E7F83BF0FB647
:103FE000F894A89580916000886180936000109299
:103FF00060000FBE08950E94F6060E9471030895A6
:1040000082E084BD93E095BD9AEF97BD80936E00EA
:1040100008952FB7F89480915C0390915D03A0916F
:104020005E03B0915F032FBF0895A4E0B0E0EBE121
:10403000F0E20C9484278FB7F89420915C033091C0
:104040005D0340915E0350915F0329833A834B8364
:104050005C838FBF69817A818B819C812496E2E0A9
:104060000C94A0279C014FB7F89480915C03909129
:104070005D03A0915E03B0915F034FBF821B930B62
:10408000089578941F921FB61F9211248F939F93C7
:10409000AF93BF9380915C0390915D03A0915E0309
:1040A000B0915F030196A11DB11D80935C039093B5
:1040B0005D03A0935E03B0935F03BF91AF919F91A7
:1040C0008F911F901FBE1F90189587E797E79093D9
:1040D00001088093000888E19AE00FB6F894A8954B
:1040E000809360000FBE90936000FFCF88E19AE05C
:1040F0000FB6F894A895809360000FBE909360006F
:10410000FFCF809111030895282FCB01BA01309180
:1041100064033430E1F42F702093E9002FEF3091E5
:10412000E80035FD07C035ED3A95F1F70000215064
:104130002111F5CF2091E80025FF09C040E050E0B3
:104140000E9488228091E8008E778093E80008958D
:10415000BC0143E050E082E00E9484200895BC014D
:1041600046E050E082E00E9484200895BC0140E2D5
:1041700050E082E00E9484200895CF93DF93D82FEF
:10418000C92F48E050E0682F792F81E00E948420F9
:1041900088E0ED2FFC2FA9E0B3E001900D928A9505
:1041A000E1F7DF91CF91089580916303811109C0F8
:1041B0000E9410240E946D248091E200846080930C
:1041C000E20008951092630308950E947B1F0895F2
:1041D0006091600381E0611101C080E00E94721F64
:1041E00008959091640381E0943009F080E060913B
:1041F00060030E94781F089542E061EC81E00E9414
:104200008C2342E261EC82E00E948C239091640353
:1042100081E0943009F080E0609160030E946C1F9F
:10422000089580916603893089F148F4823009F459
:10423000A0C0833009F45AC0813041F008958A301B
:1042400009F487C08B3009F46CC008958091650330
:10425000813A09F04AC08091E800877F8093E800A6
:104260008091690390916A03892B61F060E080E09E
:1042700090E070E00E94D7228091E8008B778093D5
:10428000E800089568E089E093E0F3CF809165034A
:10429000813259F58091690390916A03029728F55C
:1042A0008091E800877F8093E8008091E80082FF9A
:1042B00018C09091F3008091F200029731F4809140
:1042C000F100813011F0863021F48091F10080936B
:1042D00011038091E8008B778093E8000E94C0234F
:1042E00004C0809164038111E0CF0895809165033B
:1042F000813AD9F78091690390916A03892BA9F7D4
:104300008091E800877F8093E8008091E80080FF3B
:10431000FCCF809120018093F1008091E8008E779E
:10432000DBCF80916503813201F780916903909121
:104330006A03892BD1F68091E800877F8093E8009B
:104340000E94C02380916703809320010E94F6069B
:10435000089580916503813241F68091E800877F5E
:104360008093E8000E94C023809168038093120329
:10437000089580916503813A09F0B7CF8091E800F4
:10438000877F8093E8008091E80080FFFCCF8091D8
:104390001203C1CF84B7877F84BF0FB6F894A89566
:1043A00080916000886180936000109260000FBE71
:1043B00080E890E00FB6F8948093610090936100DC
:1043C0000FBE0E94811F08950E9410240E946D2438
:1043D000E2EEF0E080818460808378940E94F02691
:1043E000089586E191E00E94BD1D089580916403C7
:1043F000853031F480916403853019F00E94FB1FF1
:1044000008950E94D01F80916203882399F30E942F
:104410008E1F882379F30E9472220E94F606EACF4B
:1044200008959A0140916B0350916C030E941922E8
:104430000895AC01CB01D901252F33272330310555
:10444000E1F058F421303105C9F122303105D9F1BC
:1044500080E090E020E030E01EC02132310521F103
:1044600022323105A9F7892BC1F16130710581F73D
:1044700086EB90E02EE633E00EC0CA01992741306A
:1044800069F08230910569F0EDE1F3E0892B01F7E5
:10449000849190E09F012D933C930895E9E0F3E02F
:1044A000F7CFE9EEF2E0F4CF892B91F0613071059E
:1044B00079F689E090E02CE433E0EDCF82E190E002
:1044C0002CE533E0E8CF8BE390E021E233E0E3CF6B
:1044D00089E090E023E333E0DECF84E490E024E25F
:1044E00034E0D9CF80E189BD82E189BD09B400FE05
:1044F000FDCF8091D8008F7D8093D8008091E0001F
:1045000082608093E0008091E00081FDFCCF0895FF
:10451000AF92BF92CF92DF92FF920F931F93CF93F0
:10452000DF936C01EB018A010E94DF23F82E8111D9
:1045300023C00115110539F0F80180819181C81B54
:10454000D90BC80ED91EA12CB12C2097A9F08091AF
:10455000E80085FD22C08091E8008E778093E80016
:1045600001151105A1F0F801808191818A0D9B1D33
:104570009183808385E0F82E8F2DDF91CF911F915D
:104580000F91FF90DF90CF90BF90AF9008950E9461
:10459000DF238823E1F2F82EEFCFF60181916F013E
:1045A0008093F1002197FFEFAF1ABF0ACECFFC0135
:1045B0009B0180916B0390916C038617970718F00D
:1045C000672B61F0C90140E0009771F441110CC004
:1045D0008091E80082FF35C080E008958091E80076
:1045E0008E778093E800EECF209164032223A9F117
:1045F0002530A9F12091E80023FD2DC02091E8008D
:1046000022FDE6CF2091E80020FFDECF3091F300BD
:104610002091F200009719F02830310558F041E060
:104620002830310509F040E02091E8002E772093F2
:10463000E800CACF41914093F10001972F5F3F4FAF
:10464000E9CF80916403882341F0853041F0809167
:10465000E80083FFBDCF81E0089582E0089583E004
:104660000895FC019B0180916B0390916C03861768
:10467000970718F0672B61F0C90140E0009771F4CB
:1046800041110CC08091E80082FF36C080E008959F
:104690008091E8008E778093E800EECF209164034C
:1046A0002223B1F12530B1F12091E80023FD2EC085
:1046B0002091E80022FDE6CF2091E80020FFDECF28
:1046C0003091F3002091F200009719F02830310565
:1046D00058F041E02830310509F040E02091E80031
:1046E0002E772093E800CACF44914093F100319691
:1046F00001972F5F3F4FE8CF80916403882341F0FB
:10470000853041F08091E80083FFBCCF81E00895BF
:1047100082E0089583E00895982F973028F08F70F5
:104720008093E90081E008959093E900242F762F8B
:1047300050E0981731F07091EC002091ED0050910D
:10474000F00021FD02C09F5FE8CF3091EB003E7F7B
:104750003093EB003091ED003D7F3093ED003091D0
:10476000EB0031603093EB007093EC002093ED0090
:104770005093F0002091EE0027FDE5CF80E00895F2
:104780008091650387FF13C08091E80082FF06C017
:104790008091E8008B778093E80004C080916403E7
:1047A0008111F2CF0895809164038823D9F3809119
:1047B000E80080FFF8CF8091E8008E77ECCF209161
:1047C000E4003091E50095E6A9018091EC0081704C
:1047D000882331F08091E80080FF06C080E00895D2
:1047E0002091E80022FD1BC080916403882391F092
:1047F000853091F08091EB0085FD10C02091E400A0
:104800003091E5004217530701F391509111DCCF2D
:1048100084E0089582E0089583E0089581E008959A
:104820000E947F240E948724E0EEF0E08081816076
:104830008083E8EDF0E080818F77808319BCA7ED5D
:10484000B0E08C918E7F8C9380818F7E80831092DC
:10485000630308950F931F93CF93DF930E947F24E8
:104860000E948724C8EDD0E088818F778883888173
:104870008068888388818F7D888319BC1092640347
:1048800010926003109262031092610300EE10E038
:10489000F80180818B7F808388818160888342E0FA
:1048A00060E080E00E948C23E1EEF0E080818E7F6A
:1048B0008083E2EEF0E08081816080838081886087
:1048C0008083F80180818E7F8083888180618883E6
:1048D000DF91CF911F910F910895E8EDF0E0808175
:1048E0008F7E8083E7EDF0E080818160808384E0CB
:1048F00082BF81E0809363030E942A240895E8ED3B
:10490000F0E080818E7F80831092E2000895109203
:10491000DA001092E10008951F920F920FB60F92E5
:1049200011242F933F934F935F936F937F938F93B4
:104930009F93AF93BF93EF93FF938091E10082FF2A
:104940000BC08091E20082FF07C08091E1008B7F65
:104950008093E1000E94EF268091DA0080FF19C069
:104960008091D80080FF15C08091DA008E7F8093FF
:10497000DA008091D90080FF94C080E189BD82E196
:1049800089BD09B400FEFDCF81E0809364030E94DD
:10499000D4208091E10080FF19C08091E20080FF67
:1049A00015C08091E2008E7F8093E2008091E2004A
:1049B00080618093E2008091D80080628093D8006B
:1049C00019BC85E0809364030E94E8208091E10097
:1049D00084FF29C08091E20084FF25C080E189BD69
:1049E00082E189BD09B400FEFDCF8091D8008F7DA2
:1049F0008093D8008091E1008F7E8093E1008091C8
:104A0000E2008F7E8093E2008091E20081608093DB
:104A1000E20080916003882309F449C084E0809318
:104A200064030E94F1208091E10083FF29C08091FE
:104A3000E20083FF25C08091E100877F8093E10041
:104A400082E080936403109260038091E1008E7F86
:104A50008093E1008091E2008E7F8093E20080915C
:104A6000E20080618093E20042E060E080E00E942A
:104A70008C238091F00088608093F0000E94E520F4
:104A8000FF91EF91BF91AF919F918F917F916F9126
:104A90005F914F913F912F910F900FBE0F901F90FC
:104AA000189519BC109264030E94E22072CF809185
:104AB000E30087FF02C083E0B2CF81E0B0CF1F9256
:104AC0000F920FB60F921124FF920F931F932F9303
:104AD0003F934F935F936F937F938F939F93AF9386
:104AE000BF93CF93DF93EF93FF9309EE10E0F801AC
:104AF0008081C091EC00C795CC27C7958F70FC2EA4
:104B0000F82A1082C0EFD0E08881877F888378946C
:104B10000E94A825F8011082888188608883CF2DA3
:104B2000CF70C083FF91EF91DF91CF91BF91AF9193
:104B30009F918F917F916F915F914F913F912F91B5
:104B40001F910F91FF900F900FBE0F901F9018951F
:104B5000AAE2B0E0EEEAF5E20C94832785E693E062
:104B6000FC0101962091F100208323E08D3692070D
:104B7000B9F70E9411218091E80083FF38C080912D
:104B80006503909166039A3090F5E92FF0E0E95AB9
:104B9000F64D0C946E27803889F0823841F580916B
:104BA00069038F70873018F58093E9008091EB00DE
:104BB00085FB882780F91092E90006C08091610387
:104BC00090916203911182609091E800977F909399
:104BD000E8008093F1001092F1008091E8008E7758
:104BE00023C0811116C080916703813011F180913B
:104BF000E80083FF0AC08091E800877F8093E80087
:104C00008091EB0080628093EB00AA96E3E00C9425
:104C10009F27823061F780916703882389F0109283
:104C2000E9008091E800877F8093E8000E94C0231C
:104C3000DECF81E0933009F080E080936203EFCF14
:104C4000809169038F702FEF280F263080F68093B4
:104C5000E9002091EB0020FFE2CF933031F4809106
:104C6000EB0080628093EB00DACF9091EB009061D3
:104C70009093EB0021E030E0A90102C0440F551FE2
:104C80008A95E2F74093EA001092EA008091EB00E7
:104C90008860E8CF8111ABCF109167031F778091B7
:104CA000E3008078812B8093E3008091E800877F88
:104CB0008093E8000E94C0238091E80080FFFCCF31
:104CC0008091E30080688093E30083E0111101C0CC
:104CD00082E0809364038BCF8058823008F087CFC6
:104CE00080916703909168038C3D53E0950799F597
:104CF00083E08A838AE289834FB7F894DE011396B2
:104D000020E03EE051E2E32FF0E050935700849121
:104D100020FF03C082958F703F5F8F708A30C8F08C
:104D2000895C90E08D939D932F5F243161F74FBF95
:104D30008091E800877F8093E8006AE270E0CE010E
:104D400001960E94D7228091E8008B778093E8003B
:104D50004ECF805DE6CF6091690370916A03AE012A
:104D60004F5F5F4F0E941122BC01892B09F43FCF96
:104D70008091E800877F8093E80089819A810E9472
:104D80003123E1CF803809F032CF8091E800877F6E
:104D90008093E800809160038093F1001ECF811121
:104DA00026CF90916703923008F021CF8091E800E0
:104DB000877F8093E800909360030E94C0238091D6
:104DC0006003882331F084E0809364030E94FC2018
:104DD0000ECF8091E30087FDF6CF81E0F5CF0895F7
:104DE000CF9380916403882399F08091E900C0916A
:104DF000EC00C795CC27C7958F70C82B1092E9009F
:104E00008091E80083FD0E94A825CF70C093E9003F
:104E1000CF910895991B79E004C0991F961708F067
:104E2000961B881F7A95C9F78095089587FB082EF1
:104E3000062687FD819567FD61950E940A270EF47D
:104E4000919507FC81950895AA1BBB1B51E107C0F2
:104E5000AA1FBB1FA617B70710F0A61BB70B881F0A
:104E6000991F5A95A9F780959095BC01CD01089599
:104E700097FB072E16F4009407D077FD09D00E9407
:104E8000242707FC05D03EF4909581959F4F089507
:104E9000709561957F4F0895A1E21A2EAA1BBB1B46
:104EA000FD010DC0AA1FBB1FEE1FFF1FA217B307F6
:104EB000E407F50720F0A21BB30BE40BF50B661F0C
:104EC000771F881F991F1A9469F7609570958095D0
:104ED00090959B01AC01BD01CF010895EE0FFF1F1E
:104EE0000590F491E02D09942F923F924F925F929A
:104EF0006F927F928F929F92AF92BF92CF92DF92EA
:104F0000EF92FF920F931F93CF93DF93CDB7DEB74E
:104F1000CA1BDB0B0FB6F894DEBF0FBECDBF0994E2
:104F20002A88398848885F846E847D848C849B8439
:104F3000AA84B984C884DF80EE80FD800C811B8147
:104F4000AA81B981CE0FD11D0FB6F894DEBF0FBE76
:104F5000CDBFED010895002E083090F0982F872FD7
:104F6000762F652F542F432F322F22270850F4CF4E
:104F7000220F331F441F551F661F771F881F991F5D
:104F80000A95B2F7002D089597FD1094002E083071
:104F900098F00850232F342F452F562F672F782F46
:104FA000892F912DF4CF15949795879577956795CF
:104FB00057954795379527950A95AAF71124002DFF
:104FC00008958F929F92AF92BF92CF92DF92EF920D
:104FD000FF92CF93DF93EC01688179818A819B8175
:104FE000611571058105910521F464E279ED8BE588
:104FF00097E02DE133EF41E050E00E94B8284901ED
:105000005A019B01AC01A7EAB1E40E94D7286B01C9
:105010007C01ACEEB4EFA50194010E94E528DC010F
:10502000CB018C0D9D1DAE1DBF1DB7FF03C00197A9
:10503000A109B04888839983AA83BB839F77DF91B6
:10504000CF91FF90EF90DF90CF90BF90AF909F9067
:105050008F9008950E94E127089580E091E00E94DA
:10506000E1270895B0E0A0E0809300019093010152
:10507000A0930201B09303010895FC0141505040F8
:1050800030F001900616D1F73197CF0108958827A7
:1050900099270895FB01DC0104C08D9101908019CE
:1050A00021F441505040C8F7881B990B0895FB012B
:1050B000DC0102C001900D9241505040D8F7089594
:1050C000F999FECF92BD81BDF89A992780B50895D0
:1050D000A6E1B0E044E050E00C94AA28A8E1B0E0DA
:1050E00042E050E00C94AA28DC01A40FB51F415007
:1050F000504048F0CB01840F951F2E910E948528C7
:1051000041505040D0F70895262FF999FECF92BD17
:1051100081BDF89A019700B4021639F01FBA20BD7C
:105120000FB6F894FA9AF99A0FBE08950396272FAE
:105130000E9485280E948428252F0E948528242FDC
:105140000C9485280196272F0E9485280C9484288A
:10515000DC01CB01FC01F999FECF06C0F2BDE1BD37
:10516000F89A319600B40D9241505040B8F7089526
:10517000052E97FB1EF400940E94CF2857FD07D000
:105180000E944C2707FC03D04EF40C94CF28509576
:105190004095309521953F4F4F4F5F4F0895909523
:1051A0008095709561957F4F8F4F9F4F08950E9416
:1051B000EA28A59F900DB49F900DA49F800D911D8E
:1051C00011240895B7FF0C94D7280E94D728821B7A
:1051D000930B0895A29FB001B39FC001A39F700DD0
:1051E000811D1124911DB29F700D811D1124911DEF
:1051F0000895F894FFCFE204E204290529058E05FD
:10520000AB0511051105B005270638063806D71776
:10521000DE17E517EA17EF17F417F917FE1703184B
:1052200008180D18121816181B18D9171E18D91798
:10523000D917D917D9172118F319671AFB19C519E6
:10524000C919FF19CD19031A0F1AD919601ADD19D6
:10525000131AE119171A3F1AE5191B1A461AEB1906
:10526000211A291AD119071AD5190B1AEF19251A5B
:10527000351A4F1A5E1ABF19F7196E1A2D1B301BFB
:10528000361B4B1B4B1B4B1B4B1B4B1B4B1B4B1B03
:105290004B1B391B3E1B421B481B591B5F1B631BCF
:1052A000981D9E1D881D921DA41DAA1DB01DCB25F5
:1052B000F125F725F125F7254A266C26F725C22684
:0252C000CF26F7
:1052C20001000000460266020011001111012808C7
:1052D20050011E0A14018120BD20B620AF20A82053
:1052E20001E200E900EA00B500B600B700CD008394
:1052F20001CC008A01920194012102230224022599
:1053020002260227022A02B300B4006F0070009F37
:1053120001CB019F02A002E200E900EA00B500B65B
:1053220000B700CD008301CC008A019201940121D3
:1053320002230224022502260227022A02B300B413
:10534200006F0070009F01CB019F02A00291909418
:105352006697C63435F4F50001020202020606061B
:105362000909090909090F10101010101000FF0196
:1053720000010000FFFF0000010001FF003132F7D1
:025382003300F6
:00000001FF
